{
  "address": "0xd1d479f278B8636ECC375844bba2Ca1Ea4Ea4363",
  "abi": [
    {
      "inputs": [
        {
          "internalType": "string",
          "name": "name",
          "type": "string"
        },
        {
          "internalType": "string",
          "name": "symbol",
          "type": "string"
        },
        {
          "internalType": "string",
          "name": "_uri",
          "type": "string"
        },
        {
          "internalType": "address",
          "name": "_setOwner",
          "type": "address"
        }
      ],
      "stateMutability": "nonpayable",
      "type": "constructor"
    },
    {
      "anonymous": false,
      "inputs": [
        {
          "indexed": true,
          "internalType": "address",
          "name": "owner",
          "type": "address"
        },
        {
          "indexed": true,
          "internalType": "address",
          "name": "approved",
          "type": "address"
        },
        {
          "indexed": true,
          "internalType": "uint256",
          "name": "tokenId",
          "type": "uint256"
        }
      ],
      "name": "Approval",
      "type": "event"
    },
    {
      "anonymous": false,
      "inputs": [
        {
          "indexed": true,
          "internalType": "address",
          "name": "owner",
          "type": "address"
        },
        {
          "indexed": true,
          "internalType": "address",
          "name": "operator",
          "type": "address"
        },
        {
          "indexed": false,
          "internalType": "bool",
          "name": "approved",
          "type": "bool"
        }
      ],
      "name": "ApprovalForAll",
      "type": "event"
    },
    {
      "anonymous": false,
      "inputs": [
        {
          "indexed": true,
          "internalType": "address",
          "name": "from",
          "type": "address"
        },
        {
          "indexed": true,
          "internalType": "address",
          "name": "to",
          "type": "address"
        },
        {
          "indexed": true,
          "internalType": "uint256",
          "name": "tokenId",
          "type": "uint256"
        }
      ],
      "name": "Transfer",
      "type": "event"
    },
    {
      "stateMutability": "payable",
      "type": "fallback"
    },
    {
      "inputs": [],
      "name": "MerkleRootWL",
      "outputs": [
        {
          "internalType": "bytes32",
          "name": "",
          "type": "bytes32"
        }
      ],
      "stateMutability": "view",
      "type": "function"
    },
    {
      "inputs": [
        {
          "internalType": "bytes32",
          "name": "_MerkleRoot",
          "type": "bytes32"
        }
      ],
      "name": "addMerkleRootWL",
      "outputs": [],
      "stateMutability": "nonpayable",
      "type": "function"
    },
    {
      "inputs": [
        {
          "internalType": "address",
          "name": "to",
          "type": "address"
        },
        {
          "internalType": "uint256",
          "name": "tokenId",
          "type": "uint256"
        }
      ],
      "name": "approve",
      "outputs": [],
      "stateMutability": "nonpayable",
      "type": "function"
    },
    {
      "inputs": [
        {
          "internalType": "address",
          "name": "owner",
          "type": "address"
        }
      ],
      "name": "balanceOf",
      "outputs": [
        {
          "internalType": "uint256",
          "name": "",
          "type": "uint256"
        }
      ],
      "stateMutability": "view",
      "type": "function"
    },
    {
      "inputs": [
        {
          "internalType": "uint256",
          "name": "_tokenid",
          "type": "uint256"
        }
      ],
      "name": "burn",
      "outputs": [],
      "stateMutability": "nonpayable",
      "type": "function"
    },
    {
      "inputs": [
        {
          "internalType": "address",
          "name": "_newowner",
          "type": "address"
        }
      ],
      "name": "changeOwner",
      "outputs": [],
      "stateMutability": "nonpayable",
      "type": "function"
    },
    {
      "inputs": [
        {
          "internalType": "uint256",
          "name": "_price",
          "type": "uint256"
        }
      ],
      "name": "changePublicMintPrice",
      "outputs": [],
      "stateMutability": "nonpayable",
      "type": "function"
    },
    {
      "inputs": [],
      "name": "checkOwner",
      "outputs": [
        {
          "internalType": "address",
          "name": "",
          "type": "address"
        }
      ],
      "stateMutability": "view",
      "type": "function"
    },
    {
      "inputs": [
        {
          "internalType": "uint256",
          "name": "tokenId",
          "type": "uint256"
        }
      ],
      "name": "getApproved",
      "outputs": [
        {
          "internalType": "address",
          "name": "",
          "type": "address"
        }
      ],
      "stateMutability": "view",
      "type": "function"
    },
    {
      "inputs": [
        {
          "internalType": "address",
          "name": "owner",
          "type": "address"
        },
        {
          "internalType": "address",
          "name": "operator",
          "type": "address"
        }
      ],
      "name": "isApprovedForAll",
      "outputs": [
        {
          "internalType": "bool",
          "name": "",
          "type": "bool"
        }
      ],
      "stateMutability": "view",
      "type": "function"
    },
    {
      "inputs": [],
      "name": "mintPublic",
      "outputs": [],
      "stateMutability": "payable",
      "type": "function"
    },
    {
      "inputs": [
        {
          "internalType": "bytes32[]",
          "name": "_merkleProof",
          "type": "bytes32[]"
        }
      ],
      "name": "mintWL",
      "outputs": [],
      "stateMutability": "nonpayable",
      "type": "function"
    },
    {
      "inputs": [],
      "name": "name",
      "outputs": [
        {
          "internalType": "string",
          "name": "",
          "type": "string"
        }
      ],
      "stateMutability": "view",
      "type": "function"
    },
    {
      "inputs": [
        {
          "internalType": "uint256",
          "name": "tokenId",
          "type": "uint256"
        }
      ],
      "name": "ownerOf",
      "outputs": [
        {
          "internalType": "address",
          "name": "",
          "type": "address"
        }
      ],
      "stateMutability": "view",
      "type": "function"
    },
    {
      "inputs": [],
      "name": "publicMint",
      "outputs": [
        {
          "internalType": "bool",
          "name": "",
          "type": "bool"
        }
      ],
      "stateMutability": "view",
      "type": "function"
    },
    {
      "inputs": [],
      "name": "publicMintPrice",
      "outputs": [
        {
          "internalType": "uint256",
          "name": "",
          "type": "uint256"
        }
      ],
      "stateMutability": "view",
      "type": "function"
    },
    {
      "inputs": [
        {
          "internalType": "address",
          "name": "from",
          "type": "address"
        },
        {
          "internalType": "address",
          "name": "to",
          "type": "address"
        },
        {
          "internalType": "uint256",
          "name": "tokenId",
          "type": "uint256"
        }
      ],
      "name": "safeTransferFrom",
      "outputs": [],
      "stateMutability": "nonpayable",
      "type": "function"
    },
    {
      "inputs": [
        {
          "internalType": "address",
          "name": "from",
          "type": "address"
        },
        {
          "internalType": "address",
          "name": "to",
          "type": "address"
        },
        {
          "internalType": "uint256",
          "name": "tokenId",
          "type": "uint256"
        },
        {
          "internalType": "bytes",
          "name": "data",
          "type": "bytes"
        }
      ],
      "name": "safeTransferFrom",
      "outputs": [],
      "stateMutability": "nonpayable",
      "type": "function"
    },
    {
      "inputs": [
        {
          "internalType": "address",
          "name": "operator",
          "type": "address"
        },
        {
          "internalType": "bool",
          "name": "approved",
          "type": "bool"
        }
      ],
      "name": "setApprovalForAll",
      "outputs": [],
      "stateMutability": "nonpayable",
      "type": "function"
    },
    {
      "inputs": [
        {
          "internalType": "string",
          "name": "_set",
          "type": "string"
        }
      ],
      "name": "setURI",
      "outputs": [],
      "stateMutability": "nonpayable",
      "type": "function"
    },
    {
      "inputs": [
        {
          "internalType": "bytes4",
          "name": "interfaceId",
          "type": "bytes4"
        }
      ],
      "name": "supportsInterface",
      "outputs": [
        {
          "internalType": "bool",
          "name": "",
          "type": "bool"
        }
      ],
      "stateMutability": "view",
      "type": "function"
    },
    {
      "inputs": [],
      "name": "symbol",
      "outputs": [
        {
          "internalType": "string",
          "name": "",
          "type": "string"
        }
      ],
      "stateMutability": "view",
      "type": "function"
    },
    {
      "inputs": [],
      "name": "tokenCounter",
      "outputs": [
        {
          "internalType": "uint256",
          "name": "",
          "type": "uint256"
        }
      ],
      "stateMutability": "view",
      "type": "function"
    },
    {
      "inputs": [
        {
          "internalType": "uint256",
          "name": "tokenId",
          "type": "uint256"
        }
      ],
      "name": "tokenURI",
      "outputs": [
        {
          "internalType": "string",
          "name": "",
          "type": "string"
        }
      ],
      "stateMutability": "view",
      "type": "function"
    },
    {
      "inputs": [],
      "name": "totalSupply",
      "outputs": [
        {
          "internalType": "uint256",
          "name": "",
          "type": "uint256"
        }
      ],
      "stateMutability": "view",
      "type": "function"
    },
    {
      "inputs": [
        {
          "internalType": "address",
          "name": "from",
          "type": "address"
        },
        {
          "internalType": "address",
          "name": "to",
          "type": "address"
        },
        {
          "internalType": "uint256",
          "name": "tokenId",
          "type": "uint256"
        }
      ],
      "name": "transferFrom",
      "outputs": [],
      "stateMutability": "nonpayable",
      "type": "function"
    },
    {
      "inputs": [
        {
          "internalType": "uint256",
          "name": "_amount",
          "type": "uint256"
        }
      ],
      "name": "tresuareMint",
      "outputs": [],
      "stateMutability": "nonpayable",
      "type": "function"
    },
    {
      "inputs": [],
      "name": "turnPublicMint",
      "outputs": [],
      "stateMutability": "nonpayable",
      "type": "function"
    },
    {
      "inputs": [],
      "name": "turnWlMint",
      "outputs": [],
      "stateMutability": "nonpayable",
      "type": "function"
    },
    {
      "inputs": [],
      "name": "withdraw",
      "outputs": [],
      "stateMutability": "nonpayable",
      "type": "function"
    },
    {
      "inputs": [],
      "name": "wlMint",
      "outputs": [
        {
          "internalType": "bool",
          "name": "",
          "type": "bool"
        }
      ],
      "stateMutability": "view",
      "type": "function"
    },
    {
      "inputs": [],
      "name": "wlMintedAlready",
      "outputs": [
        {
          "internalType": "uint256",
          "name": "",
          "type": "uint256"
        }
      ],
      "stateMutability": "view",
      "type": "function"
    },
    {
      "stateMutability": "payable",
      "type": "receive"
    }
  ],
  "transactionHash": "0x7c1197702b10c8d5c56dc18d115ae1e9c8f1994fc5bb2e8b16504c1f3c101523",
  "args": [
    "Forsadma",
    "car",
    "https://ipfs.io/ipfs/QmVLxtgyGbcL7hpZRnAWBvNwMD8NWAKh9qqGvCXQ1z5JK5/",
    "0x3ED13d767D4B99904230a32AA4D62b78CA2514fb"
  ],
  "numDeployments": 4,
  "solcInputHash": "1c878926c2c18e541dbc9cd9ce1859b5",
  "bytecode": "0x608060405260405180602001604052806000815250600190805190602001906200002b92919062000149565b50611388600955666a94d74f430000600b556000600d60006101000a81548160ff0219169083151502179055506000600d60016101000a81548160ff0219169083151502179055503480156200008057600080fd5b50604051620048a0380380620048a08339818101604052810190620000a69190620003fb565b8383828260029080519060200190620000c192919062000149565b508160039080519060200190620000da92919062000149565b50806000806101000a81548173ffffffffffffffffffffffffffffffffffffffff021916908373ffffffffffffffffffffffffffffffffffffffff160217905550505050600160088190555081600190805190602001906200013e92919062000149565b50505050506200052f565b8280546200015790620004f9565b90600052602060002090601f0160209004810192826200017b5760008555620001c7565b82601f106200019657805160ff1916838001178555620001c7565b82800160010185558215620001c7579182015b82811115620001c6578251825591602001919060010190620001a9565b5b509050620001d69190620001da565b5090565b5b80821115620001f5576000816000905550600101620001db565b5090565b6000604051905090565b600080fd5b600080fd5b600080fd5b600080fd5b6000601f19601f8301169050919050565b7f4e487b7100000000000000000000000000000000000000000000000000000000600052604160045260246000fd5b620002628262000217565b810181811067ffffffffffffffff8211171562000284576200028362000228565b5b80604052505050565b600062000299620001f9565b9050620002a7828262000257565b919050565b600067ffffffffffffffff821115620002ca57620002c962000228565b5b620002d58262000217565b9050602081019050919050565b60005b8381101562000302578082015181840152602081019050620002e5565b8381111562000312576000848401525b50505050565b60006200032f6200032984620002ac565b6200028d565b9050828152602081018484840111156200034e576200034d62000212565b5b6200035b848285620002e2565b509392505050565b600082601f8301126200037b576200037a6200020d565b5b81516200038d84826020860162000318565b91505092915050565b600073ffffffffffffffffffffffffffffffffffffffff82169050919050565b6000620003c38262000396565b9050919050565b620003d581620003b6565b8114620003e157600080fd5b50565b600081519050620003f581620003ca565b92915050565b6000806000806080858703121562000418576200041762000203565b5b600085015167ffffffffffffffff81111562000439576200043862000208565b5b620004478782880162000363565b945050602085015167ffffffffffffffff8111156200046b576200046a62000208565b5b620004798782880162000363565b935050604085015167ffffffffffffffff8111156200049d576200049c62000208565b5b620004ab8782880162000363565b9250506060620004be87828801620003e4565b91505092959194509250565b7f4e487b7100000000000000000000000000000000000000000000000000000000600052602260045260246000fd5b600060028204905060018216806200051257607f821691505b60208210811415620005295762000528620004ca565b5b50919050565b614361806200053f6000396000f3fe6080604052600436106101e75760003560e01c806370a0823111610102578063b88d4fde11610095578063dc53fd9211610064578063dc53fd921461068b578063e985e9c5146106b6578063f3b0d1cc146106f3578063f3fca7631461071c576101ee565b8063b88d4fde146105cf578063c87b56dd146105f8578063cdbce03d14610635578063d082e38114610660576101ee565b806395d89b41116100d157806395d89b4114610527578063a22cb46514610552578063a6f9dae11461057b578063a7c2c990146105a4576101ee565b806370a082311461049e5780637aa4dad2146104db5780637f9fa411146104f25780638c874ebd1461051d576101ee565b806323b872dd1161017a57806342842e0e1161014957806342842e0e146103e657806342966c681461040f578063558b231e146104385780636352211e14610461576101ee565b806323b872dd1461035257806326092b831461037b57806336c9cfe7146103a65780633ccfd60b146103cf576101ee565b806306fdde03116101b657806306fdde0314610296578063081812fc146102c1578063095ea7b3146102fe57806318160ddd14610327576101ee565b806301ffc9a7146101f057806302fe53051461022d5780630578f97d14610256578063062100df1461027f576101ee565b366101ee57005b005b3480156101fc57600080fd5b5061021760048036038101906102129190612df1565b610747565b6040516102249190612e39565b60405180910390f35b34801561023957600080fd5b50610254600480360381019061024f9190612f9a565b610829565b005b34801561026257600080fd5b5061027d60048036038101906102789190613043565b6108d1565b005b34801561028b57600080fd5b50610294610b87565b005b3480156102a257600080fd5b506102ab610c6f565b6040516102b89190613118565b60405180910390f35b3480156102cd57600080fd5b506102e860048036038101906102e39190613170565b610d01565b6040516102f591906131de565b60405180910390f35b34801561030a57600080fd5b5061032560048036038101906103209190613225565b610d47565b005b34801561033357600080fd5b5061033c610e5f565b6040516103499190613274565b60405180910390f35b34801561035e57600080fd5b506103796004803603810190610374919061328f565b610e69565b005b34801561038757600080fd5b50610390610f57565b60405161039d9190612e39565b60405180910390f35b3480156103b257600080fd5b506103cd60048036038101906103c89190613318565b610f6a565b005b3480156103db57600080fd5b506103e4611002565b005b3480156103f257600080fd5b5061040d6004803603810190610408919061328f565b6110d9565b005b34801561041b57600080fd5b5061043660048036038101906104319190613170565b611187565b005b34801561044457600080fd5b5061045f600480360381019061045a9190613170565b611242565b005b34801561046d57600080fd5b5061048860048036038101906104839190613170565b611388565b60405161049591906131de565b60405180910390f35b3480156104aa57600080fd5b506104c560048036038101906104c09190613345565b61140f565b6040516104d29190613274565b60405180910390f35b3480156104e757600080fd5b506104f06114c7565b005b3480156104fe57600080fd5b506105076115af565b6040516105149190612e39565b60405180910390f35b6105256115c2565b005b34801561053357600080fd5b5061053c6117a3565b6040516105499190613118565b60405180910390f35b34801561055e57600080fd5b506105796004803603810190610574919061339e565b611835565b005b34801561058757600080fd5b506105a2600480360381019061059d9190613345565b61184b565b005b3480156105b057600080fd5b506105b961191c565b6040516105c69190613274565b60405180910390f35b3480156105db57600080fd5b506105f660048036038101906105f1919061347f565b611926565b005b34801561060457600080fd5b5061061f600480360381019061061a9190613170565b611a16565b60405161062c9190613118565b60405180910390f35b34801561064157600080fd5b5061064a611a7e565b60405161065791906131de565b60405180910390f35b34801561066c57600080fd5b50610675611aa7565b6040516106829190613274565b60405180910390f35b34801561069757600080fd5b506106a0611aad565b6040516106ad9190613274565b60405180910390f35b3480156106c257600080fd5b506106dd60048036038101906106d89190613502565b611ab3565b6040516106ea9190612e39565b60405180910390f35b3480156106ff57600080fd5b5061071a60048036038101906107159190613170565b611b47565b005b34801561072857600080fd5b50610731611bdf565b60405161073e9190613551565b60405180910390f35b60007f80ac58cd000000000000000000000000000000000000000000000000000000007bffffffffffffffffffffffffffffffffffffffffffffffffffffffff1916827bffffffffffffffffffffffffffffffffffffffffffffffffffffffff1916148061081257507f5b5e139f000000000000000000000000000000000000000000000000000000007bffffffffffffffffffffffffffffffffffffffffffffffffffffffff1916827bffffffffffffffffffffffffffffffffffffffffffffffffffffffff1916145b80610822575061082182611be5565b5b9050919050565b60008054906101000a900473ffffffffffffffffffffffffffffffffffffffff1673ffffffffffffffffffffffffffffffffffffffff163373ffffffffffffffffffffffffffffffffffffffff16146108b7576040517f08c379a00000000000000000000000000000000000000000000000000000000081526004016108ae906135de565b60405180910390fd5b80600190805190602001906108cd929190612ce2565b5050565b6000336040516020016108e49190613646565b60405160208183030381529060405280519060200120905060011515600d60009054906101000a900460ff16151514610952576040517f08c379a0000000000000000000000000000000000000000000000000000000008152600401610949906136ad565b60405180910390fd5b600954600a541115610999576040517f08c379a000000000000000000000000000000000000000000000000000000000815260040161099090613719565b60405180910390fd5b6001600e60003373ffffffffffffffffffffffffffffffffffffffff1673ffffffffffffffffffffffffffffffffffffffff1681526020019081526020016000205410610a1b576040517f08c379a0000000000000000000000000000000000000000000000000000000008152600401610a12906137ab565b60405180910390fd5b610a69838380806020026020016040519081016040528093929190818152602001838360200280828437600081840152601f19601f82011690508083019250505050505050600c5483611c4f565b610aa8576040517f08c379a0000000000000000000000000000000000000000000000000000000008152600401610a9f90613817565b60405180910390fd5b6127106008541115610aef576040517f08c379a0000000000000000000000000000000000000000000000000000000008152600401610ae690613883565b60405180910390fd5b610afb33600854611c66565b60086000815480929190610b0e906138d2565b9190505550600a6000815480929190610b26906138d2565b91905055506001600e60003373ffffffffffffffffffffffffffffffffffffffff1673ffffffffffffffffffffffffffffffffffffffff1681526020019081526020016000206000828254610b7b919061391b565b92505081905550505050565b60008054906101000a900473ffffffffffffffffffffffffffffffffffffffff1673ffffffffffffffffffffffffffffffffffffffff163373ffffffffffffffffffffffffffffffffffffffff1614610c15576040517f08c379a0000000000000000000000000000000000000000000000000000000008152600401610c0c906135de565b60405180910390fd5b60001515600d60019054906101000a900460ff1615151415610c51576001600d60016101000a81548160ff021916908315150217905550610c6d565b6000600d60016101000a81548160ff0219169083151502179055505b565b606060028054610c7e906139a0565b80601f0160208091040260200160405190810160405280929190818152602001828054610caa906139a0565b8015610cf75780601f10610ccc57610100808354040283529160200191610cf7565b820191906000526020600020905b815481529060010190602001808311610cda57829003601f168201915b5050505050905090565b6000610d0c82611c84565b6006600083815260200190815260200160002060009054906101000a900473ffffffffffffffffffffffffffffffffffffffff169050919050565b6000610d5282611388565b90508073ffffffffffffffffffffffffffffffffffffffff168373ffffffffffffffffffffffffffffffffffffffff161415610dc3576040517f08c379a0000000000000000000000000000000000000000000000000000000008152600401610dba90613a44565b60405180910390fd5b8073ffffffffffffffffffffffffffffffffffffffff16610de2611ccf565b73ffffffffffffffffffffffffffffffffffffffff161480610e115750610e1081610e0b611ccf565b611ab3565b5b610e50576040517f08c379a0000000000000000000000000000000000000000000000000000000008152600401610e4790613ad6565b60405180910390fd5b610e5a8383611cd7565b505050565b6000600854905090565b60008054906101000a900473ffffffffffffffffffffffffffffffffffffffff1673ffffffffffffffffffffffffffffffffffffffff163373ffffffffffffffffffffffffffffffffffffffff1614610ef7576040517f08c379a0000000000000000000000000000000000000000000000000000000008152600401610eee906135de565b60405180910390fd5b610f08610f02611ccf565b82611d90565b610f47576040517f08c379a0000000000000000000000000000000000000000000000000000000008152600401610f3e90613b68565b60405180910390fd5b610f52838383611e25565b505050565b600d60019054906101000a900460ff1681565b60008054906101000a900473ffffffffffffffffffffffffffffffffffffffff1673ffffffffffffffffffffffffffffffffffffffff163373ffffffffffffffffffffffffffffffffffffffff1614610ff8576040517f08c379a0000000000000000000000000000000000000000000000000000000008152600401610fef906135de565b60405180910390fd5b80600c8190555050565b60008054906101000a900473ffffffffffffffffffffffffffffffffffffffff1673ffffffffffffffffffffffffffffffffffffffff163373ffffffffffffffffffffffffffffffffffffffff1614611090576040517f08c379a0000000000000000000000000000000000000000000000000000000008152600401611087906135de565b60405180910390fd5b3373ffffffffffffffffffffffffffffffffffffffff166108fc479081150290604051600060405180830381858888f193505050501580156110d6573d6000803e3d6000fd5b50565b60008054906101000a900473ffffffffffffffffffffffffffffffffffffffff1673ffffffffffffffffffffffffffffffffffffffff163373ffffffffffffffffffffffffffffffffffffffff1614611167576040517f08c379a000000000000000000000000000000000000000000000000000000000815260040161115e906135de565b60405180910390fd5b61118283838360405180602001604052806000815250611926565b505050565b60008054906101000a900473ffffffffffffffffffffffffffffffffffffffff1673ffffffffffffffffffffffffffffffffffffffff163373ffffffffffffffffffffffffffffffffffffffff1614611215576040517f08c379a000000000000000000000000000000000000000000000000000000000815260040161120c906135de565b60405180910390fd5b61123f8160008054906101000a900473ffffffffffffffffffffffffffffffffffffffff1661211f565b50565b60008054906101000a900473ffffffffffffffffffffffffffffffffffffffff1673ffffffffffffffffffffffffffffffffffffffff163373ffffffffffffffffffffffffffffffffffffffff16146112d0576040517f08c379a00000000000000000000000000000000000000000000000000000000081526004016112c7906135de565b60405180910390fd5b612710816008546112e1919061391b565b1115611322576040517f08c379a000000000000000000000000000000000000000000000000000000000815260040161131990613bd4565b60405180910390fd5b60005b818110156113845761135960008054906101000a900473ffffffffffffffffffffffffffffffffffffffff16600854611c66565b6008600081548092919061136c906138d2565b9190505550808061137c906138d2565b915050611325565b5050565b600080611394836121e7565b9050600073ffffffffffffffffffffffffffffffffffffffff168173ffffffffffffffffffffffffffffffffffffffff161415611406576040517f08c379a00000000000000000000000000000000000000000000000000000000081526004016113fd90613c40565b60405180910390fd5b80915050919050565b60008073ffffffffffffffffffffffffffffffffffffffff168273ffffffffffffffffffffffffffffffffffffffff161415611480576040517f08c379a000000000000000000000000000000000000000000000000000000000815260040161147790613cd2565b60405180910390fd5b600560008373ffffffffffffffffffffffffffffffffffffffff1673ffffffffffffffffffffffffffffffffffffffff168152602001908152602001600020549050919050565b60008054906101000a900473ffffffffffffffffffffffffffffffffffffffff1673ffffffffffffffffffffffffffffffffffffffff163373ffffffffffffffffffffffffffffffffffffffff1614611555576040517f08c379a000000000000000000000000000000000000000000000000000000000815260040161154c906135de565b60405180910390fd5b60001515600d60009054906101000a900460ff1615151415611591576001600d60006101000a81548160ff0219169083151502179055506115ad565b6000600d60006101000a81548160ff0219169083151502179055505b565b600d60009054906101000a900460ff1681565b600b54341015611607576040517f08c379a00000000000000000000000000000000000000000000000000000000081526004016115fe90613d3e565b60405180910390fd5b60011515600d60019054906101000a900460ff1615151461165d576040517f08c379a000000000000000000000000000000000000000000000000000000000815260040161165490613daa565b60405180910390fd5b6001600f60003373ffffffffffffffffffffffffffffffffffffffff1673ffffffffffffffffffffffffffffffffffffffff16815260200190815260200160002054106116df576040517f08c379a00000000000000000000000000000000000000000000000000000000081526004016116d690613e3c565b60405180910390fd5b6127106008541115611726576040517f08c379a000000000000000000000000000000000000000000000000000000000815260040161171d90613bd4565b60405180910390fd5b61173233600854611c66565b60086000815480929190611745906138d2565b91905055506001600f60003373ffffffffffffffffffffffffffffffffffffffff1673ffffffffffffffffffffffffffffffffffffffff168152602001908152602001600020600082825461179a919061391b565b92505081905550565b6060600380546117b2906139a0565b80601f01602080910402602001604051908101604052809291908181526020018280546117de906139a0565b801561182b5780601f106118005761010080835404028352916020019161182b565b820191906000526020600020905b81548152906001019060200180831161180e57829003601f168201915b5050505050905090565b611847611840611ccf565b8383612224565b5050565b60008054906101000a900473ffffffffffffffffffffffffffffffffffffffff1673ffffffffffffffffffffffffffffffffffffffff163373ffffffffffffffffffffffffffffffffffffffff16146118d9576040517f08c379a00000000000000000000000000000000000000000000000000000000081526004016118d0906135de565b60405180910390fd5b806000806101000a81548173ffffffffffffffffffffffffffffffffffffffff021916908373ffffffffffffffffffffffffffffffffffffffff16021790555050565b6000600a54905090565b60008054906101000a900473ffffffffffffffffffffffffffffffffffffffff1673ffffffffffffffffffffffffffffffffffffffff163373ffffffffffffffffffffffffffffffffffffffff16146119b4576040517f08c379a00000000000000000000000000000000000000000000000000000000081526004016119ab906135de565b60405180910390fd5b6119c56119bf611ccf565b83611d90565b611a04576040517f08c379a00000000000000000000000000000000000000000000000000000000081526004016119fb90613b68565b60405180910390fd5b611a1084848484612391565b50505050565b6060611a2182611c84565b6000611a2b6123ed565b90506000815111611a4b5760405180602001604052806000815250611a76565b80611a558461247f565b604051602001611a66929190613e98565b6040516020818303038152906040525b915050919050565b60008060009054906101000a900473ffffffffffffffffffffffffffffffffffffffff16905090565b60085481565b600b5481565b6000600760008473ffffffffffffffffffffffffffffffffffffffff1673ffffffffffffffffffffffffffffffffffffffff16815260200190815260200160002060008373ffffffffffffffffffffffffffffffffffffffff1673ffffffffffffffffffffffffffffffffffffffff16815260200190815260200160002060009054906101000a900460ff16905092915050565b60008054906101000a900473ffffffffffffffffffffffffffffffffffffffff1673ffffffffffffffffffffffffffffffffffffffff163373ffffffffffffffffffffffffffffffffffffffff1614611bd5576040517f08c379a0000000000000000000000000000000000000000000000000000000008152600401611bcc906135de565b60405180910390fd5b80600b8190555050565b600c5481565b60007f01ffc9a7000000000000000000000000000000000000000000000000000000007bffffffffffffffffffffffffffffffffffffffffffffffffffffffff1916827bffffffffffffffffffffffffffffffffffffffffffffffffffffffff1916149050919050565b600082611c5c8584612557565b1490509392505050565b611c808282604051806020016040528060008152506125ad565b5050565b611c8d81612608565b611ccc576040517f08c379a0000000000000000000000000000000000000000000000000000000008152600401611cc390613c40565b60405180910390fd5b50565b600033905090565b816006600083815260200190815260200160002060006101000a81548173ffffffffffffffffffffffffffffffffffffffff021916908373ffffffffffffffffffffffffffffffffffffffff160217905550808273ffffffffffffffffffffffffffffffffffffffff16611d4a83611388565b73ffffffffffffffffffffffffffffffffffffffff167f8c5be1e5ebec7d5bd14f71427d1e84f3dd0314c0f7b2291e5b200ac8c7c3b92560405160405180910390a45050565b600080611d9c83611388565b90508073ffffffffffffffffffffffffffffffffffffffff168473ffffffffffffffffffffffffffffffffffffffff161480611dde5750611ddd8185611ab3565b5b80611e1c57508373ffffffffffffffffffffffffffffffffffffffff16611e0484610d01565b73ffffffffffffffffffffffffffffffffffffffff16145b91505092915050565b8273ffffffffffffffffffffffffffffffffffffffff16611e4582611388565b73ffffffffffffffffffffffffffffffffffffffff1614611e9b576040517f08c379a0000000000000000000000000000000000000000000000000000000008152600401611e9290613f2e565b60405180910390fd5b600073ffffffffffffffffffffffffffffffffffffffff168273ffffffffffffffffffffffffffffffffffffffff161415611f0b576040517f08c379a0000000000000000000000000000000000000000000000000000000008152600401611f0290613fc0565b60405180910390fd5b611f188383836001612649565b8273ffffffffffffffffffffffffffffffffffffffff16611f3882611388565b73ffffffffffffffffffffffffffffffffffffffff1614611f8e576040517f08c379a0000000000000000000000000000000000000000000000000000000008152600401611f8590613f2e565b60405180910390fd5b6006600082815260200190815260200160002060006101000a81549073ffffffffffffffffffffffffffffffffffffffff02191690556001600560008573ffffffffffffffffffffffffffffffffffffffff1673ffffffffffffffffffffffffffffffffffffffff168152602001908152602001600020600082825403925050819055506001600560008473ffffffffffffffffffffffffffffffffffffffff1673ffffffffffffffffffffffffffffffffffffffff16815260200190815260200160002060008282540192505081905550816004600083815260200190815260200160002060006101000a81548173ffffffffffffffffffffffffffffffffffffffff021916908373ffffffffffffffffffffffffffffffffffffffff160217905550808273ffffffffffffffffffffffffffffffffffffffff168473ffffffffffffffffffffffffffffffffffffffff167fddf252ad1be2c89b69c2b068fc378daa952ba7f163c4a11628f55a4df523b3ef60405160405180910390a461211a838383600161276f565b505050565b600061212a83611388565b9050612137818385611e25565b61214083611388565b90506006600084815260200190815260200160002060006101000a81549073ffffffffffffffffffffffffffffffffffffffff021916905582600073ffffffffffffffffffffffffffffffffffffffff168273ffffffffffffffffffffffffffffffffffffffff167fddf252ad1be2c89b69c2b068fc378daa952ba7f163c4a11628f55a4df523b3ef60405160405180910390a46121e281600085600161276f565b505050565b60006004600083815260200190815260200160002060009054906101000a900473ffffffffffffffffffffffffffffffffffffffff169050919050565b8173ffffffffffffffffffffffffffffffffffffffff168373ffffffffffffffffffffffffffffffffffffffff161415612293576040517f08c379a000000000000000000000000000000000000000000000000000000000815260040161228a9061402c565b60405180910390fd5b80600760008573ffffffffffffffffffffffffffffffffffffffff1673ffffffffffffffffffffffffffffffffffffffff16815260200190815260200160002060008473ffffffffffffffffffffffffffffffffffffffff1673ffffffffffffffffffffffffffffffffffffffff16815260200190815260200160002060006101000a81548160ff0219169083151502179055508173ffffffffffffffffffffffffffffffffffffffff168373ffffffffffffffffffffffffffffffffffffffff167f17307eab39ab6107e8899845ad3d59bd9653f200f220920489ca2b5937696c31836040516123849190612e39565b60405180910390a3505050565b61239c848484611e25565b6123a884848484612775565b6123e7576040517f08c379a00000000000000000000000000000000000000000000000000000000081526004016123de906140be565b60405180910390fd5b50505050565b6060600180546123fc906139a0565b80601f0160208091040260200160405190810160405280929190818152602001828054612428906139a0565b80156124755780601f1061244a57610100808354040283529160200191612475565b820191906000526020600020905b81548152906001019060200180831161245857829003601f168201915b5050505050905090565b60606000600161248e8461290c565b01905060008167ffffffffffffffff8111156124ad576124ac612e6f565b5b6040519080825280601f01601f1916602001820160405280156124df5781602001600182028036833780820191505090505b509050600082602001820190505b60011561254c578080600190039150507f3031323334353637383961626364656600000000000000000000000000000000600a86061a8153600a8581612536576125356140de565b5b04945060008514156125475761254c565b6124ed565b819350505050919050565b60008082905060005b84518110156125a25761258d828683815181106125805761257f61410d565b5b6020026020010151612a5f565b9150808061259a906138d2565b915050612560565b508091505092915050565b6125b78383612a8a565b6125c46000848484612775565b612603576040517f08c379a00000000000000000000000000000000000000000000000000000000081526004016125fa906140be565b60405180910390fd5b505050565b60008073ffffffffffffffffffffffffffffffffffffffff1661262a836121e7565b73ffffffffffffffffffffffffffffffffffffffff1614159050919050565b600181111561276957600073ffffffffffffffffffffffffffffffffffffffff168473ffffffffffffffffffffffffffffffffffffffff16146126dd5780600560008673ffffffffffffffffffffffffffffffffffffffff1673ffffffffffffffffffffffffffffffffffffffff16815260200190815260200160002060008282546126d5919061413c565b925050819055505b600073ffffffffffffffffffffffffffffffffffffffff168373ffffffffffffffffffffffffffffffffffffffff16146127685780600560008573ffffffffffffffffffffffffffffffffffffffff1673ffffffffffffffffffffffffffffffffffffffff1681526020019081526020016000206000828254612760919061391b565b925050819055505b5b50505050565b50505050565b60006127968473ffffffffffffffffffffffffffffffffffffffff16612ca8565b156128ff578373ffffffffffffffffffffffffffffffffffffffff1663150b7a026127bf611ccf565b8786866040518563ffffffff1660e01b81526004016127e194939291906141c5565b602060405180830381600087803b1580156127fb57600080fd5b505af192505050801561282c57506040513d601f19601f820116820180604052508101906128299190614226565b60015b6128af573d806000811461285c576040519150601f19603f3d011682016040523d82523d6000602084013e612861565b606091505b506000815114156128a7576040517f08c379a000000000000000000000000000000000000000000000000000000000815260040161289e906140be565b60405180910390fd5b805181602001fd5b63150b7a0260e01b7bffffffffffffffffffffffffffffffffffffffffffffffffffffffff1916817bffffffffffffffffffffffffffffffffffffffffffffffffffffffff191614915050612904565b600190505b949350505050565b600080600090507a184f03e93ff9f4daa797ed6e38ed64bf6a1f010000000000000000831061296a577a184f03e93ff9f4daa797ed6e38ed64bf6a1f01000000000000000083816129605761295f6140de565b5b0492506040810190505b6d04ee2d6d415b85acef810000000083106129a7576d04ee2d6d415b85acef8100000000838161299d5761299c6140de565b5b0492506020810190505b662386f26fc1000083106129d657662386f26fc1000083816129cc576129cb6140de565b5b0492506010810190505b6305f5e10083106129ff576305f5e10083816129f5576129f46140de565b5b0492506008810190505b6127108310612a24576127108381612a1a57612a196140de565b5b0492506004810190505b60648310612a475760648381612a3d57612a3c6140de565b5b0492506002810190505b600a8310612a56576001810190505b80915050919050565b6000818310612a7757612a728284612ccb565b612a82565b612a818383612ccb565b5b905092915050565b600073ffffffffffffffffffffffffffffffffffffffff168273ffffffffffffffffffffffffffffffffffffffff161415612afa576040517f08c379a0000000000000000000000000000000000000000000000000000000008152600401612af19061429f565b60405180910390fd5b612b0381612608565b15612b43576040517f08c379a0000000000000000000000000000000000000000000000000000000008152600401612b3a9061430b565b60405180910390fd5b612b51600083836001612649565b612b5a81612608565b15612b9a576040517f08c379a0000000000000000000000000000000000000000000000000000000008152600401612b919061430b565b60405180910390fd5b6001600560008473ffffffffffffffffffffffffffffffffffffffff1673ffffffffffffffffffffffffffffffffffffffff16815260200190815260200160002060008282540192505081905550816004600083815260200190815260200160002060006101000a81548173ffffffffffffffffffffffffffffffffffffffff021916908373ffffffffffffffffffffffffffffffffffffffff160217905550808273ffffffffffffffffffffffffffffffffffffffff16600073ffffffffffffffffffffffffffffffffffffffff167fddf252ad1be2c89b69c2b068fc378daa952ba7f163c4a11628f55a4df523b3ef60405160405180910390a4612ca460008383600161276f565b5050565b6000808273ffffffffffffffffffffffffffffffffffffffff163b119050919050565b600082600052816020526040600020905092915050565b828054612cee906139a0565b90600052602060002090601f016020900481019282612d105760008555612d57565b82601f10612d2957805160ff1916838001178555612d57565b82800160010185558215612d57579182015b82811115612d56578251825591602001919060010190612d3b565b5b509050612d649190612d68565b5090565b5b80821115612d81576000816000905550600101612d69565b5090565b6000604051905090565b600080fd5b600080fd5b60007fffffffff0000000000000000000000000000000000000000000000000000000082169050919050565b612dce81612d99565b8114612dd957600080fd5b50565b600081359050612deb81612dc5565b92915050565b600060208284031215612e0757612e06612d8f565b5b6000612e1584828501612ddc565b91505092915050565b60008115159050919050565b612e3381612e1e565b82525050565b6000602082019050612e4e6000830184612e2a565b92915050565b600080fd5b600080fd5b6000601f19601f8301169050919050565b7f4e487b7100000000000000000000000000000000000000000000000000000000600052604160045260246000fd5b612ea782612e5e565b810181811067ffffffffffffffff82111715612ec657612ec5612e6f565b5b80604052505050565b6000612ed9612d85565b9050612ee58282612e9e565b919050565b600067ffffffffffffffff821115612f0557612f04612e6f565b5b612f0e82612e5e565b9050602081019050919050565b82818337600083830152505050565b6000612f3d612f3884612eea565b612ecf565b905082815260208101848484011115612f5957612f58612e59565b5b612f64848285612f1b565b509392505050565b600082601f830112612f8157612f80612e54565b5b8135612f91848260208601612f2a565b91505092915050565b600060208284031215612fb057612faf612d8f565b5b600082013567ffffffffffffffff811115612fce57612fcd612d94565b5b612fda84828501612f6c565b91505092915050565b600080fd5b600080fd5b60008083601f84011261300357613002612e54565b5b8235905067ffffffffffffffff8111156130205761301f612fe3565b5b60208301915083602082028301111561303c5761303b612fe8565b5b9250929050565b6000806020838503121561305a57613059612d8f565b5b600083013567ffffffffffffffff81111561307857613077612d94565b5b61308485828601612fed565b92509250509250929050565b600081519050919050565b600082825260208201905092915050565b60005b838110156130ca5780820151818401526020810190506130af565b838111156130d9576000848401525b50505050565b60006130ea82613090565b6130f4818561309b565b93506131048185602086016130ac565b61310d81612e5e565b840191505092915050565b6000602082019050818103600083015261313281846130df565b905092915050565b6000819050919050565b61314d8161313a565b811461315857600080fd5b50565b60008135905061316a81613144565b92915050565b60006020828403121561318657613185612d8f565b5b60006131948482850161315b565b91505092915050565b600073ffffffffffffffffffffffffffffffffffffffff82169050919050565b60006131c88261319d565b9050919050565b6131d8816131bd565b82525050565b60006020820190506131f360008301846131cf565b92915050565b613202816131bd565b811461320d57600080fd5b50565b60008135905061321f816131f9565b92915050565b6000806040838503121561323c5761323b612d8f565b5b600061324a85828601613210565b925050602061325b8582860161315b565b9150509250929050565b61326e8161313a565b82525050565b60006020820190506132896000830184613265565b92915050565b6000806000606084860312156132a8576132a7612d8f565b5b60006132b686828701613210565b93505060206132c786828701613210565b92505060406132d88682870161315b565b9150509250925092565b6000819050919050565b6132f5816132e2565b811461330057600080fd5b50565b600081359050613312816132ec565b92915050565b60006020828403121561332e5761332d612d8f565b5b600061333c84828501613303565b91505092915050565b60006020828403121561335b5761335a612d8f565b5b600061336984828501613210565b91505092915050565b61337b81612e1e565b811461338657600080fd5b50565b60008135905061339881613372565b92915050565b600080604083850312156133b5576133b4612d8f565b5b60006133c385828601613210565b92505060206133d485828601613389565b9150509250929050565b600067ffffffffffffffff8211156133f9576133f8612e6f565b5b61340282612e5e565b9050602081019050919050565b600061342261341d846133de565b612ecf565b90508281526020810184848401111561343e5761343d612e59565b5b613449848285612f1b565b509392505050565b600082601f83011261346657613465612e54565b5b813561347684826020860161340f565b91505092915050565b6000806000806080858703121561349957613498612d8f565b5b60006134a787828801613210565b94505060206134b887828801613210565b93505060406134c98782880161315b565b925050606085013567ffffffffffffffff8111156134ea576134e9612d94565b5b6134f687828801613451565b91505092959194509250565b6000806040838503121561351957613518612d8f565b5b600061352785828601613210565b925050602061353885828601613210565b9150509250929050565b61354b816132e2565b82525050565b60006020820190506135666000830184613542565b92915050565b7f4f6e6c79206f776e65722063616e2063616c6c2074686973206675636e74696f60008201527f6e00000000000000000000000000000000000000000000000000000000000000602082015250565b60006135c860218361309b565b91506135d38261356c565b604082019050919050565b600060208201905081810360008301526135f7816135bb565b9050919050565b60008160601b9050919050565b6000613616826135fe565b9050919050565b60006136288261360b565b9050919050565b61364061363b826131bd565b61361d565b82525050565b6000613652828461362f565b60148201915081905092915050565b7f576c206d696e7420697320636c6f736500000000000000000000000000000000600082015250565b600061369760108361309b565b91506136a282613661565b602082019050919050565b600060208201905081810360008301526136c68161368a565b9050919050565b7f576c2073697a6520776173207265616368656400000000000000000000000000600082015250565b600061370360138361309b565b915061370e826136cd565b602082019050919050565b60006020820190508181036000830152613732816136f6565b9050919050565b7f596f75206861766520616c7265616479206d696e746564206d617820776c206e60008201527f667420666f7220796f7572206164647265737300000000000000000000000000602082015250565b600061379560338361309b565b91506137a082613739565b604082019050919050565b600060208201905081810360008301526137c481613788565b9050919050565b7f596f7520617265206e6f7420696e2077686974656c6973740000000000000000600082015250565b600061380160188361309b565b915061380c826137cb565b602082019050919050565b60006020820190508181036000830152613830816137f4565b9050919050565b7f596f75206861766520726563686564206d617820746f74616c20737570706c79600082015250565b600061386d60208361309b565b915061387882613837565b602082019050919050565b6000602082019050818103600083015261389c81613860565b9050919050565b7f4e487b7100000000000000000000000000000000000000000000000000000000600052601160045260246000fd5b60006138dd8261313a565b91507fffffffffffffffffffffffffffffffffffffffffffffffffffffffffffffffff8214156139105761390f6138a3565b5b600182019050919050565b60006139268261313a565b91506139318361313a565b9250827fffffffffffffffffffffffffffffffffffffffffffffffffffffffffffffffff03821115613966576139656138a3565b5b828201905092915050565b7f4e487b7100000000000000000000000000000000000000000000000000000000600052602260045260246000fd5b600060028204905060018216806139b857607f821691505b602082108114156139cc576139cb613971565b5b50919050565b7f4552433732313a20617070726f76616c20746f2063757272656e74206f776e6560008201527f7200000000000000000000000000000000000000000000000000000000000000602082015250565b6000613a2e60218361309b565b9150613a39826139d2565b604082019050919050565b60006020820190508181036000830152613a5d81613a21565b9050919050565b7f4552433732313a20617070726f76652063616c6c6572206973206e6f7420746f60008201527f6b656e206f776e6572206f7220617070726f76656420666f7220616c6c000000602082015250565b6000613ac0603d8361309b565b9150613acb82613a64565b604082019050919050565b60006020820190508181036000830152613aef81613ab3565b9050919050565b7f4552433732313a2063616c6c6572206973206e6f7420746f6b656e206f776e6560008201527f72206f7220617070726f76656400000000000000000000000000000000000000602082015250565b6000613b52602d8361309b565b9150613b5d82613af6565b604082019050919050565b60006020820190508181036000830152613b8181613b45565b9050919050565b7f596f752072656163686564206d6178746f74616c20737570706c790000000000600082015250565b6000613bbe601b8361309b565b9150613bc982613b88565b602082019050919050565b60006020820190508181036000830152613bed81613bb1565b9050919050565b7f4552433732313a20696e76616c696420746f6b656e2049440000000000000000600082015250565b6000613c2a60188361309b565b9150613c3582613bf4565b602082019050919050565b60006020820190508181036000830152613c5981613c1d565b9050919050565b7f4552433732313a2061646472657373207a65726f206973206e6f74206120766160008201527f6c6964206f776e65720000000000000000000000000000000000000000000000602082015250565b6000613cbc60298361309b565b9150613cc782613c60565b604082019050919050565b60006020820190508181036000830152613ceb81613caf565b9050919050565b7f4e6f7420656e6f75676820455448000000000000000000000000000000000000600082015250565b6000613d28600e8361309b565b9150613d3382613cf2565b602082019050919050565b60006020820190508181036000830152613d5781613d1b565b9050919050565b7f5075626c6963206d696e74206469646e2774206f70656e000000000000000000600082015250565b6000613d9460178361309b565b9150613d9f82613d5e565b602082019050919050565b60006020820190508181036000830152613dc381613d87565b9050919050565b7f596f752068617665206d696e746564206d61782070657220796f75206164647260008201527f6573730000000000000000000000000000000000000000000000000000000000602082015250565b6000613e2660238361309b565b9150613e3182613dca565b604082019050919050565b60006020820190508181036000830152613e5581613e19565b9050919050565b600081905092915050565b6000613e7282613090565b613e7c8185613e5c565b9350613e8c8185602086016130ac565b80840191505092915050565b6000613ea48285613e67565b9150613eb08284613e67565b91508190509392505050565b7f4552433732313a207472616e736665722066726f6d20696e636f72726563742060008201527f6f776e6572000000000000000000000000000000000000000000000000000000602082015250565b6000613f1860258361309b565b9150613f2382613ebc565b604082019050919050565b60006020820190508181036000830152613f4781613f0b565b9050919050565b7f4552433732313a207472616e7366657220746f20746865207a65726f2061646460008201527f7265737300000000000000000000000000000000000000000000000000000000602082015250565b6000613faa60248361309b565b9150613fb582613f4e565b604082019050919050565b60006020820190508181036000830152613fd981613f9d565b9050919050565b7f4552433732313a20617070726f766520746f2063616c6c657200000000000000600082015250565b600061401660198361309b565b915061402182613fe0565b602082019050919050565b6000602082019050818103600083015261404581614009565b9050919050565b7f4552433732313a207472616e7366657220746f206e6f6e20455243373231526560008201527f63656976657220696d706c656d656e7465720000000000000000000000000000602082015250565b60006140a860328361309b565b91506140b38261404c565b604082019050919050565b600060208201905081810360008301526140d78161409b565b9050919050565b7f4e487b7100000000000000000000000000000000000000000000000000000000600052601260045260246000fd5b7f4e487b7100000000000000000000000000000000000000000000000000000000600052603260045260246000fd5b60006141478261313a565b91506141528361313a565b925082821015614165576141646138a3565b5b828203905092915050565b600081519050919050565b600082825260208201905092915050565b600061419782614170565b6141a1818561417b565b93506141b18185602086016130ac565b6141ba81612e5e565b840191505092915050565b60006080820190506141da60008301876131cf565b6141e760208301866131cf565b6141f46040830185613265565b8181036060830152614206818461418c565b905095945050505050565b60008151905061422081612dc5565b92915050565b60006020828403121561423c5761423b612d8f565b5b600061424a84828501614211565b91505092915050565b7f4552433732313a206d696e7420746f20746865207a65726f2061646472657373600082015250565b600061428960208361309b565b915061429482614253565b602082019050919050565b600060208201905081810360008301526142b88161427c565b9050919050565b7f4552433732313a20746f6b656e20616c7265616479206d696e74656400000000600082015250565b60006142f5601c8361309b565b9150614300826142bf565b602082019050919050565b60006020820190508181036000830152614324816142e8565b905091905056fea2646970667358221220c6e9ac8869b40c554b0e5875106ec94c1052ae2d6b1993a80c8323c18e11217f64736f6c63430008090033",
  "devdoc": {
    "kind": "dev",
    "methods": {
      "approve(address,uint256)": {
        "details": "See {IERC721-approve}."
      },
      "balanceOf(address)": {
        "details": "See {IERC721-balanceOf}."
      },
      "getApproved(uint256)": {
        "details": "See {IERC721-getApproved}."
      },
      "isApprovedForAll(address,address)": {
        "details": "See {IERC721-isApprovedForAll}."
      },
      "name()": {
        "details": "See {IERC721Metadata-name}."
      },
      "ownerOf(uint256)": {
        "details": "See {IERC721-ownerOf}."
      },
      "safeTransferFrom(address,address,uint256)": {
        "details": "See {IERC721-safeTransferFrom}."
      },
      "safeTransferFrom(address,address,uint256,bytes)": {
        "details": "See {IERC721-safeTransferFrom}."
      },
      "setApprovalForAll(address,bool)": {
        "details": "See {IERC721-setApprovalForAll}."
      },
      "supportsInterface(bytes4)": {
        "details": "See {IERC165-supportsInterface}."
      },
      "symbol()": {
        "details": "See {IERC721Metadata-symbol}."
      },
      "tokenURI(uint256)": {
        "details": "See {IERC721Metadata-tokenURI}."
      },
      "transferFrom(address,address,uint256)": {
        "details": "See {IERC721-transferFrom}."
      }
    },
    "version": 1
  },
  "userdoc": {
    "kind": "user",
    "methods": {},
    "version": 1
  },
  "storageLayout": {
    "storage": [
      {
        "astId": 25,
        "contract": "contracts/formaCar.sol:formaCar",
        "label": "_owner",
        "offset": 0,
        "slot": "0",
        "type": "t_address"
      },
      {
        "astId": 40,
        "contract": "contracts/formaCar.sol:formaCar",
        "label": "baseURI",
        "offset": 0,
        "slot": "1",
        "type": "t_string_storage"
      },
      {
        "astId": 42,
        "contract": "contracts/formaCar.sol:formaCar",
        "label": "_name",
        "offset": 0,
        "slot": "2",
        "type": "t_string_storage"
      },
      {
        "astId": 44,
        "contract": "contracts/formaCar.sol:formaCar",
        "label": "_symbol",
        "offset": 0,
        "slot": "3",
        "type": "t_string_storage"
      },
      {
        "astId": 48,
        "contract": "contracts/formaCar.sol:formaCar",
        "label": "_owners",
        "offset": 0,
        "slot": "4",
        "type": "t_mapping(t_uint256,t_address)"
      },
      {
        "astId": 52,
        "contract": "contracts/formaCar.sol:formaCar",
        "label": "_balances",
        "offset": 0,
        "slot": "5",
        "type": "t_mapping(t_address,t_uint256)"
      },
      {
        "astId": 56,
        "contract": "contracts/formaCar.sol:formaCar",
        "label": "_tokenApprovals",
        "offset": 0,
        "slot": "6",
        "type": "t_mapping(t_uint256,t_address)"
      },
      {
        "astId": 62,
        "contract": "contracts/formaCar.sol:formaCar",
        "label": "_operatorApprovals",
        "offset": 0,
        "slot": "7",
        "type": "t_mapping(t_address,t_mapping(t_address,t_bool))"
      },
      {
        "astId": 3059,
        "contract": "contracts/formaCar.sol:formaCar",
        "label": "tokenCounter",
        "offset": 0,
        "slot": "8",
        "type": "t_uint256"
      },
      {
        "astId": 3062,
        "contract": "contracts/formaCar.sol:formaCar",
        "label": "maxToWlMint",
        "offset": 0,
        "slot": "9",
        "type": "t_uint256"
      },
      {
        "astId": 3064,
        "contract": "contracts/formaCar.sol:formaCar",
        "label": "wlMinted",
        "offset": 0,
        "slot": "10",
        "type": "t_uint256"
      },
      {
        "astId": 3067,
        "contract": "contracts/formaCar.sol:formaCar",
        "label": "publicMintPrice",
        "offset": 0,
        "slot": "11",
        "type": "t_uint256"
      },
      {
        "astId": 3072,
        "contract": "contracts/formaCar.sol:formaCar",
        "label": "MerkleRootWL",
        "offset": 0,
        "slot": "12",
        "type": "t_bytes32"
      },
      {
        "astId": 3075,
        "contract": "contracts/formaCar.sol:formaCar",
        "label": "wlMint",
        "offset": 0,
        "slot": "13",
        "type": "t_bool"
      },
      {
        "astId": 3078,
        "contract": "contracts/formaCar.sol:formaCar",
        "label": "publicMint",
        "offset": 1,
        "slot": "13",
        "type": "t_bool"
      },
      {
        "astId": 3107,
        "contract": "contracts/formaCar.sol:formaCar",
        "label": "addresMintedWl",
        "offset": 0,
        "slot": "14",
        "type": "t_mapping(t_address,t_uint256)"
      },
      {
        "astId": 3111,
        "contract": "contracts/formaCar.sol:formaCar",
        "label": "addresMintedPublic",
        "offset": 0,
        "slot": "15",
        "type": "t_mapping(t_address,t_uint256)"
      }
    ],
    "types": {
      "t_address": {
        "encoding": "inplace",
        "label": "address",
        "numberOfBytes": "20"
      },
      "t_bool": {
        "encoding": "inplace",
        "label": "bool",
        "numberOfBytes": "1"
      },
      "t_bytes32": {
        "encoding": "inplace",
        "label": "bytes32",
        "numberOfBytes": "32"
      },
      "t_mapping(t_address,t_bool)": {
        "encoding": "mapping",
        "key": "t_address",
        "label": "mapping(address => bool)",
        "numberOfBytes": "32",
        "value": "t_bool"
      },
      "t_mapping(t_address,t_mapping(t_address,t_bool))": {
        "encoding": "mapping",
        "key": "t_address",
        "label": "mapping(address => mapping(address => bool))",
        "numberOfBytes": "32",
        "value": "t_mapping(t_address,t_bool)"
      },
      "t_mapping(t_address,t_uint256)": {
        "encoding": "mapping",
        "key": "t_address",
        "label": "mapping(address => uint256)",
        "numberOfBytes": "32",
        "value": "t_uint256"
      },
      "t_mapping(t_uint256,t_address)": {
        "encoding": "mapping",
        "key": "t_uint256",
        "label": "mapping(uint256 => address)",
        "numberOfBytes": "32",
        "value": "t_address"
      },
      "t_string_storage": {
        "encoding": "bytes",
        "label": "string",
        "numberOfBytes": "32"
      },
      "t_uint256": {
        "encoding": "inplace",
        "label": "uint256",
        "numberOfBytes": "32"
      }
    }
  }
}