{
  "address": "0x62A5289e5493e42542265271392683FD3cF71d19",
  "abi": [
    {
      "inputs": [
        {
          "internalType": "string",
          "name": "name",
          "type": "string"
        },
        {
          "internalType": "string",
          "name": "symbol",
          "type": "string"
        }
      ],
      "stateMutability": "nonpayable",
      "type": "constructor"
    },
    {
      "anonymous": false,
      "inputs": [
        {
          "indexed": true,
          "internalType": "address",
          "name": "owner",
          "type": "address"
        },
        {
          "indexed": true,
          "internalType": "address",
          "name": "approved",
          "type": "address"
        },
        {
          "indexed": true,
          "internalType": "uint256",
          "name": "tokenId",
          "type": "uint256"
        }
      ],
      "name": "Approval",
      "type": "event"
    },
    {
      "anonymous": false,
      "inputs": [
        {
          "indexed": true,
          "internalType": "address",
          "name": "owner",
          "type": "address"
        },
        {
          "indexed": true,
          "internalType": "address",
          "name": "operator",
          "type": "address"
        },
        {
          "indexed": false,
          "internalType": "bool",
          "name": "approved",
          "type": "bool"
        }
      ],
      "name": "ApprovalForAll",
      "type": "event"
    },
    {
      "anonymous": false,
      "inputs": [
        {
          "indexed": true,
          "internalType": "address",
          "name": "from",
          "type": "address"
        },
        {
          "indexed": true,
          "internalType": "address",
          "name": "to",
          "type": "address"
        },
        {
          "indexed": true,
          "internalType": "uint256",
          "name": "tokenId",
          "type": "uint256"
        }
      ],
      "name": "Transfer",
      "type": "event"
    },
    {
      "stateMutability": "payable",
      "type": "fallback"
    },
    {
      "inputs": [],
      "name": "MerkleRootWL",
      "outputs": [
        {
          "internalType": "bytes32",
          "name": "",
          "type": "bytes32"
        }
      ],
      "stateMutability": "view",
      "type": "function"
    },
    {
      "inputs": [
        {
          "internalType": "bytes32",
          "name": "_MerkleRoot",
          "type": "bytes32"
        }
      ],
      "name": "addMerkleRootWL",
      "outputs": [],
      "stateMutability": "nonpayable",
      "type": "function"
    },
    {
      "inputs": [
        {
          "internalType": "address",
          "name": "to",
          "type": "address"
        },
        {
          "internalType": "uint256",
          "name": "tokenId",
          "type": "uint256"
        }
      ],
      "name": "approve",
      "outputs": [],
      "stateMutability": "nonpayable",
      "type": "function"
    },
    {
      "inputs": [
        {
          "internalType": "address",
          "name": "owner",
          "type": "address"
        }
      ],
      "name": "balanceOf",
      "outputs": [
        {
          "internalType": "uint256",
          "name": "",
          "type": "uint256"
        }
      ],
      "stateMutability": "view",
      "type": "function"
    },
    {
      "inputs": [
        {
          "internalType": "uint256",
          "name": "_tokenid",
          "type": "uint256"
        }
      ],
      "name": "burn",
      "outputs": [],
      "stateMutability": "nonpayable",
      "type": "function"
    },
    {
      "inputs": [
        {
          "internalType": "address",
          "name": "_owner",
          "type": "address"
        }
      ],
      "name": "changeOwner",
      "outputs": [],
      "stateMutability": "nonpayable",
      "type": "function"
    },
    {
      "inputs": [
        {
          "internalType": "uint256",
          "name": "_price",
          "type": "uint256"
        }
      ],
      "name": "changePublicMintPrice",
      "outputs": [],
      "stateMutability": "nonpayable",
      "type": "function"
    },
    {
      "inputs": [],
      "name": "checkOwner",
      "outputs": [
        {
          "internalType": "address",
          "name": "",
          "type": "address"
        }
      ],
      "stateMutability": "view",
      "type": "function"
    },
    {
      "inputs": [
        {
          "internalType": "uint256",
          "name": "tokenId",
          "type": "uint256"
        }
      ],
      "name": "getApproved",
      "outputs": [
        {
          "internalType": "address",
          "name": "",
          "type": "address"
        }
      ],
      "stateMutability": "view",
      "type": "function"
    },
    {
      "inputs": [
        {
          "internalType": "address",
          "name": "owner",
          "type": "address"
        },
        {
          "internalType": "address",
          "name": "operator",
          "type": "address"
        }
      ],
      "name": "isApprovedForAll",
      "outputs": [
        {
          "internalType": "bool",
          "name": "",
          "type": "bool"
        }
      ],
      "stateMutability": "view",
      "type": "function"
    },
    {
      "inputs": [],
      "name": "mintPublic",
      "outputs": [],
      "stateMutability": "payable",
      "type": "function"
    },
    {
      "inputs": [
        {
          "internalType": "bytes32[]",
          "name": "_merkleProof",
          "type": "bytes32[]"
        }
      ],
      "name": "mintWL",
      "outputs": [],
      "stateMutability": "nonpayable",
      "type": "function"
    },
    {
      "inputs": [],
      "name": "name",
      "outputs": [
        {
          "internalType": "string",
          "name": "",
          "type": "string"
        }
      ],
      "stateMutability": "view",
      "type": "function"
    },
    {
      "inputs": [
        {
          "internalType": "uint256",
          "name": "tokenId",
          "type": "uint256"
        }
      ],
      "name": "ownerOf",
      "outputs": [
        {
          "internalType": "address",
          "name": "",
          "type": "address"
        }
      ],
      "stateMutability": "view",
      "type": "function"
    },
    {
      "inputs": [],
      "name": "publicMint",
      "outputs": [
        {
          "internalType": "bool",
          "name": "",
          "type": "bool"
        }
      ],
      "stateMutability": "view",
      "type": "function"
    },
    {
      "inputs": [
        {
          "internalType": "address",
          "name": "from",
          "type": "address"
        },
        {
          "internalType": "address",
          "name": "to",
          "type": "address"
        },
        {
          "internalType": "uint256",
          "name": "tokenId",
          "type": "uint256"
        }
      ],
      "name": "safeTransferFrom",
      "outputs": [],
      "stateMutability": "nonpayable",
      "type": "function"
    },
    {
      "inputs": [
        {
          "internalType": "address",
          "name": "from",
          "type": "address"
        },
        {
          "internalType": "address",
          "name": "to",
          "type": "address"
        },
        {
          "internalType": "uint256",
          "name": "tokenId",
          "type": "uint256"
        },
        {
          "internalType": "bytes",
          "name": "data",
          "type": "bytes"
        }
      ],
      "name": "safeTransferFrom",
      "outputs": [],
      "stateMutability": "nonpayable",
      "type": "function"
    },
    {
      "inputs": [
        {
          "internalType": "address",
          "name": "operator",
          "type": "address"
        },
        {
          "internalType": "bool",
          "name": "approved",
          "type": "bool"
        }
      ],
      "name": "setApprovalForAll",
      "outputs": [],
      "stateMutability": "nonpayable",
      "type": "function"
    },
    {
      "inputs": [
        {
          "internalType": "string",
          "name": "_set",
          "type": "string"
        }
      ],
      "name": "setURI",
      "outputs": [],
      "stateMutability": "nonpayable",
      "type": "function"
    },
    {
      "inputs": [
        {
          "internalType": "bytes4",
          "name": "interfaceId",
          "type": "bytes4"
        }
      ],
      "name": "supportsInterface",
      "outputs": [
        {
          "internalType": "bool",
          "name": "",
          "type": "bool"
        }
      ],
      "stateMutability": "view",
      "type": "function"
    },
    {
      "inputs": [],
      "name": "symbol",
      "outputs": [
        {
          "internalType": "string",
          "name": "",
          "type": "string"
        }
      ],
      "stateMutability": "view",
      "type": "function"
    },
    {
      "inputs": [],
      "name": "tokenCounter",
      "outputs": [
        {
          "internalType": "uint256",
          "name": "",
          "type": "uint256"
        }
      ],
      "stateMutability": "view",
      "type": "function"
    },
    {
      "inputs": [
        {
          "internalType": "uint256",
          "name": "tokenId",
          "type": "uint256"
        }
      ],
      "name": "tokenURI",
      "outputs": [
        {
          "internalType": "string",
          "name": "",
          "type": "string"
        }
      ],
      "stateMutability": "view",
      "type": "function"
    },
    {
      "inputs": [],
      "name": "totalSupply",
      "outputs": [
        {
          "internalType": "uint256",
          "name": "",
          "type": "uint256"
        }
      ],
      "stateMutability": "view",
      "type": "function"
    },
    {
      "inputs": [
        {
          "internalType": "address",
          "name": "from",
          "type": "address"
        },
        {
          "internalType": "address",
          "name": "to",
          "type": "address"
        },
        {
          "internalType": "uint256",
          "name": "tokenId",
          "type": "uint256"
        }
      ],
      "name": "transferFrom",
      "outputs": [],
      "stateMutability": "nonpayable",
      "type": "function"
    },
    {
      "inputs": [
        {
          "internalType": "uint256",
          "name": "_amount",
          "type": "uint256"
        }
      ],
      "name": "tresuareMint",
      "outputs": [],
      "stateMutability": "nonpayable",
      "type": "function"
    },
    {
      "inputs": [],
      "name": "turnPublicMint",
      "outputs": [],
      "stateMutability": "nonpayable",
      "type": "function"
    },
    {
      "inputs": [],
      "name": "turnWlMint",
      "outputs": [],
      "stateMutability": "nonpayable",
      "type": "function"
    },
    {
      "inputs": [],
      "name": "withdraw",
      "outputs": [],
      "stateMutability": "nonpayable",
      "type": "function"
    },
    {
      "inputs": [],
      "name": "wlMint",
      "outputs": [
        {
          "internalType": "bool",
          "name": "",
          "type": "bool"
        }
      ],
      "stateMutability": "view",
      "type": "function"
    },
    {
      "inputs": [],
      "name": "wlMintedAlready",
      "outputs": [
        {
          "internalType": "uint256",
          "name": "",
          "type": "uint256"
        }
      ],
      "stateMutability": "view",
      "type": "function"
    },
    {
      "stateMutability": "payable",
      "type": "receive"
    }
  ],
  "transactionHash": "0x4e54399aaf4f4da4f4da23b4df951846f3731236bf1ed475d560d0b2b3e9dcb3",
  "args": [
    "Formacarc",
    "car"
  ],
  "numDeployments": 2,
  "solcInputHash": "4f7d1bbdb9eed28514fb6a30ae32c9bd",
  "bytecode": "0x608060405260405180602001604052806000815250600190805190602001906200002b92919062000167565b506113886009556003600b556000600d60006101000a81548160ff0219169083151502179055506000600d60016101000a81548160ff0219169083151502179055503480156200007a57600080fd5b50604051620047d9380380620047d98339818101604052810190620000a09190620003b4565b81818160029080519060200190620000ba92919062000167565b508060039080519060200190620000d392919062000167565b50336000806101000a81548173ffffffffffffffffffffffffffffffffffffffff021916908373ffffffffffffffffffffffffffffffffffffffff1602179055505050600160088190555033600d60026101000a81548173ffffffffffffffffffffffffffffffffffffffff021916908373ffffffffffffffffffffffffffffffffffffffff16021790555050506200049e565b828054620001759062000468565b90600052602060002090601f016020900481019282620001995760008555620001e5565b82601f10620001b457805160ff1916838001178555620001e5565b82800160010185558215620001e5579182015b82811115620001e4578251825591602001919060010190620001c7565b5b509050620001f49190620001f8565b5090565b5b8082111562000213576000816000905550600101620001f9565b5090565b6000604051905090565b600080fd5b600080fd5b600080fd5b600080fd5b6000601f19601f8301169050919050565b7f4e487b7100000000000000000000000000000000000000000000000000000000600052604160045260246000fd5b620002808262000235565b810181811067ffffffffffffffff82111715620002a257620002a162000246565b5b80604052505050565b6000620002b762000217565b9050620002c5828262000275565b919050565b600067ffffffffffffffff821115620002e857620002e762000246565b5b620002f38262000235565b9050602081019050919050565b60005b838110156200032057808201518184015260208101905062000303565b8381111562000330576000848401525b50505050565b60006200034d6200034784620002ca565b620002ab565b9050828152602081018484840111156200036c576200036b62000230565b5b6200037984828562000300565b509392505050565b600082601f8301126200039957620003986200022b565b5b8151620003ab84826020860162000336565b91505092915050565b60008060408385031215620003ce57620003cd62000221565b5b600083015167ffffffffffffffff811115620003ef57620003ee62000226565b5b620003fd8582860162000381565b925050602083015167ffffffffffffffff81111562000421576200042062000226565b5b6200042f8582860162000381565b9150509250929050565b7f4e487b7100000000000000000000000000000000000000000000000000000000600052602260045260246000fd5b600060028204905060018216806200048157607f821691505b6020821081141562000498576200049762000439565b5b50919050565b61432b80620004ae6000396000f3fe6080604052600436106101dc5760003560e01c80636352211e11610102578063a7c2c99011610095578063d082e38111610064578063d082e38114610655578063e985e9c514610680578063f3b0d1cc146106bd578063f3fca763146106e6576101e3565b8063a7c2c99014610599578063b88d4fde146105c4578063c87b56dd146105ed578063cdbce03d1461062a576101e3565b80638c874ebd116100d15780638c874ebd1461051257806395d89b411461051c578063a22cb46514610547578063a6f9dae114610570576101e3565b80636352211e1461045657806370a08231146104935780637aa4dad2146104d05780637f9fa411146104e7576101e3565b806318160ddd1161017a5780633ccfd60b116101495780633ccfd60b146103c457806342842e0e146103db57806342966c6814610404578063558b231e1461042d576101e3565b806318160ddd1461031c57806323b872dd1461034757806326092b831461037057806336c9cfe71461039b576101e3565b8063062100df116101b6578063062100df1461027457806306fdde031461028b578063081812fc146102b6578063095ea7b3146102f3576101e3565b806301ffc9a7146101e557806302fe5305146102225780630578f97d1461024b576101e3565b366101e357005b005b3480156101f157600080fd5b5061020c60048036038101906102079190612dbb565b610711565b6040516102199190612e03565b60405180910390f35b34801561022e57600080fd5b5061024960048036038101906102449190612f64565b6107f3565b005b34801561025757600080fd5b50610272600480360381019061026d919061300d565b61089b565b005b34801561028057600080fd5b50610289610b51565b005b34801561029757600080fd5b506102a0610c39565b6040516102ad91906130e2565b60405180910390f35b3480156102c257600080fd5b506102dd60048036038101906102d8919061313a565b610ccb565b6040516102ea91906131a8565b60405180910390f35b3480156102ff57600080fd5b5061031a600480360381019061031591906131ef565b610d11565b005b34801561032857600080fd5b50610331610e29565b60405161033e919061323e565b60405180910390f35b34801561035357600080fd5b5061036e60048036038101906103699190613259565b610e33565b005b34801561037c57600080fd5b50610385610f21565b6040516103929190612e03565b60405180910390f35b3480156103a757600080fd5b506103c260048036038101906103bd91906132e2565b610f34565b005b3480156103d057600080fd5b506103d9610fcc565b005b3480156103e757600080fd5b5061040260048036038101906103fd9190613259565b6110a3565b005b34801561041057600080fd5b5061042b6004803603810190610426919061313a565b611151565b005b34801561043957600080fd5b50610454600480360381019061044f919061313a565b61120e565b005b34801561046257600080fd5b5061047d6004803603810190610478919061313a565b611356565b60405161048a91906131a8565b60405180910390f35b34801561049f57600080fd5b506104ba60048036038101906104b5919061330f565b6113dd565b6040516104c7919061323e565b60405180910390f35b3480156104dc57600080fd5b506104e5611495565b005b3480156104f357600080fd5b506104fc61157d565b6040516105099190612e03565b60405180910390f35b61051a611590565b005b34801561052857600080fd5b50610531611771565b60405161053e91906130e2565b60405180910390f35b34801561055357600080fd5b5061056e60048036038101906105699190613368565b611803565b005b34801561057c57600080fd5b506105976004803603810190610592919061330f565b611819565b005b3480156105a557600080fd5b506105ae6118eb565b6040516105bb919061323e565b60405180910390f35b3480156105d057600080fd5b506105eb60048036038101906105e69190613449565b6118f5565b005b3480156105f957600080fd5b50610614600480360381019061060f919061313a565b6119e5565b60405161062191906130e2565b60405180910390f35b34801561063657600080fd5b5061063f611a4d565b60405161064c91906131a8565b60405180910390f35b34801561066157600080fd5b5061066a611a77565b604051610677919061323e565b60405180910390f35b34801561068c57600080fd5b506106a760048036038101906106a291906134cc565b611a7d565b6040516106b49190612e03565b60405180910390f35b3480156106c957600080fd5b506106e460048036038101906106df919061313a565b611b11565b005b3480156106f257600080fd5b506106fb611ba9565b604051610708919061351b565b60405180910390f35b60007f80ac58cd000000000000000000000000000000000000000000000000000000007bffffffffffffffffffffffffffffffffffffffffffffffffffffffff1916827bffffffffffffffffffffffffffffffffffffffffffffffffffffffff191614806107dc57507f5b5e139f000000000000000000000000000000000000000000000000000000007bffffffffffffffffffffffffffffffffffffffffffffffffffffffff1916827bffffffffffffffffffffffffffffffffffffffffffffffffffffffff1916145b806107ec57506107eb82611baf565b5b9050919050565b60008054906101000a900473ffffffffffffffffffffffffffffffffffffffff1673ffffffffffffffffffffffffffffffffffffffff163373ffffffffffffffffffffffffffffffffffffffff1614610881576040517f08c379a0000000000000000000000000000000000000000000000000000000008152600401610878906135a8565b60405180910390fd5b8060019080519060200190610897929190612cac565b5050565b6000336040516020016108ae9190613610565b60405160208183030381529060405280519060200120905060011515600d60009054906101000a900460ff1615151461091c576040517f08c379a000000000000000000000000000000000000000000000000000000000815260040161091390613677565b60405180910390fd5b600954600a541115610963576040517f08c379a000000000000000000000000000000000000000000000000000000000815260040161095a906136e3565b60405180910390fd5b6001600e60003373ffffffffffffffffffffffffffffffffffffffff1673ffffffffffffffffffffffffffffffffffffffff16815260200190815260200160002054106109e5576040517f08c379a00000000000000000000000000000000000000000000000000000000081526004016109dc90613775565b60405180910390fd5b610a33838380806020026020016040519081016040528093929190818152602001838360200280828437600081840152601f19601f82011690508083019250505050505050600c5483611c19565b610a72576040517f08c379a0000000000000000000000000000000000000000000000000000000008152600401610a69906137e1565b60405180910390fd5b6127106008541115610ab9576040517f08c379a0000000000000000000000000000000000000000000000000000000008152600401610ab09061384d565b60405180910390fd5b610ac533600854611c30565b60086000815480929190610ad89061389c565b9190505550600a6000815480929190610af09061389c565b91905055506001600e60003373ffffffffffffffffffffffffffffffffffffffff1673ffffffffffffffffffffffffffffffffffffffff1681526020019081526020016000206000828254610b4591906138e5565b92505081905550505050565b60008054906101000a900473ffffffffffffffffffffffffffffffffffffffff1673ffffffffffffffffffffffffffffffffffffffff163373ffffffffffffffffffffffffffffffffffffffff1614610bdf576040517f08c379a0000000000000000000000000000000000000000000000000000000008152600401610bd6906135a8565b60405180910390fd5b60001515600d60019054906101000a900460ff1615151415610c1b576001600d60016101000a81548160ff021916908315150217905550610c37565b6000600d60016101000a81548160ff0219169083151502179055505b565b606060028054610c489061396a565b80601f0160208091040260200160405190810160405280929190818152602001828054610c749061396a565b8015610cc15780601f10610c9657610100808354040283529160200191610cc1565b820191906000526020600020905b815481529060010190602001808311610ca457829003601f168201915b5050505050905090565b6000610cd682611c4e565b6006600083815260200190815260200160002060009054906101000a900473ffffffffffffffffffffffffffffffffffffffff169050919050565b6000610d1c82611356565b90508073ffffffffffffffffffffffffffffffffffffffff168373ffffffffffffffffffffffffffffffffffffffff161415610d8d576040517f08c379a0000000000000000000000000000000000000000000000000000000008152600401610d8490613a0e565b60405180910390fd5b8073ffffffffffffffffffffffffffffffffffffffff16610dac611c99565b73ffffffffffffffffffffffffffffffffffffffff161480610ddb5750610dda81610dd5611c99565b611a7d565b5b610e1a576040517f08c379a0000000000000000000000000000000000000000000000000000000008152600401610e1190613aa0565b60405180910390fd5b610e248383611ca1565b505050565b6000600854905090565b60008054906101000a900473ffffffffffffffffffffffffffffffffffffffff1673ffffffffffffffffffffffffffffffffffffffff163373ffffffffffffffffffffffffffffffffffffffff1614610ec1576040517f08c379a0000000000000000000000000000000000000000000000000000000008152600401610eb8906135a8565b60405180910390fd5b610ed2610ecc611c99565b82611d5a565b610f11576040517f08c379a0000000000000000000000000000000000000000000000000000000008152600401610f0890613b32565b60405180910390fd5b610f1c838383611def565b505050565b600d60019054906101000a900460ff1681565b60008054906101000a900473ffffffffffffffffffffffffffffffffffffffff1673ffffffffffffffffffffffffffffffffffffffff163373ffffffffffffffffffffffffffffffffffffffff1614610fc2576040517f08c379a0000000000000000000000000000000000000000000000000000000008152600401610fb9906135a8565b60405180910390fd5b80600c8190555050565b60008054906101000a900473ffffffffffffffffffffffffffffffffffffffff1673ffffffffffffffffffffffffffffffffffffffff163373ffffffffffffffffffffffffffffffffffffffff161461105a576040517f08c379a0000000000000000000000000000000000000000000000000000000008152600401611051906135a8565b60405180910390fd5b3373ffffffffffffffffffffffffffffffffffffffff166108fc479081150290604051600060405180830381858888f193505050501580156110a0573d6000803e3d6000fd5b50565b60008054906101000a900473ffffffffffffffffffffffffffffffffffffffff1673ffffffffffffffffffffffffffffffffffffffff163373ffffffffffffffffffffffffffffffffffffffff1614611131576040517f08c379a0000000000000000000000000000000000000000000000000000000008152600401611128906135a8565b60405180910390fd5b61114c838383604051806020016040528060008152506118f5565b505050565b60008054906101000a900473ffffffffffffffffffffffffffffffffffffffff1673ffffffffffffffffffffffffffffffffffffffff163373ffffffffffffffffffffffffffffffffffffffff16146111df576040517f08c379a00000000000000000000000000000000000000000000000000000000081526004016111d6906135a8565b60405180910390fd5b61120b81600d60029054906101000a900473ffffffffffffffffffffffffffffffffffffffff166120e9565b50565b60008054906101000a900473ffffffffffffffffffffffffffffffffffffffff1673ffffffffffffffffffffffffffffffffffffffff163373ffffffffffffffffffffffffffffffffffffffff161461129c576040517f08c379a0000000000000000000000000000000000000000000000000000000008152600401611293906135a8565b60405180910390fd5b612710816008546112ad91906138e5565b11156112ee576040517f08c379a00000000000000000000000000000000000000000000000000000000081526004016112e590613b9e565b60405180910390fd5b60005b8181101561135257611327600d60029054906101000a900473ffffffffffffffffffffffffffffffffffffffff16600854611c30565b6008600081548092919061133a9061389c565b9190505550808061134a9061389c565b9150506112f1565b5050565b600080611362836121b1565b9050600073ffffffffffffffffffffffffffffffffffffffff168173ffffffffffffffffffffffffffffffffffffffff1614156113d4576040517f08c379a00000000000000000000000000000000000000000000000000000000081526004016113cb90613c0a565b60405180910390fd5b80915050919050565b60008073ffffffffffffffffffffffffffffffffffffffff168273ffffffffffffffffffffffffffffffffffffffff16141561144e576040517f08c379a000000000000000000000000000000000000000000000000000000000815260040161144590613c9c565b60405180910390fd5b600560008373ffffffffffffffffffffffffffffffffffffffff1673ffffffffffffffffffffffffffffffffffffffff168152602001908152602001600020549050919050565b60008054906101000a900473ffffffffffffffffffffffffffffffffffffffff1673ffffffffffffffffffffffffffffffffffffffff163373ffffffffffffffffffffffffffffffffffffffff1614611523576040517f08c379a000000000000000000000000000000000000000000000000000000000815260040161151a906135a8565b60405180910390fd5b60001515600d60009054906101000a900460ff161515141561155f576001600d60006101000a81548160ff02191690831515021790555061157b565b6000600d60006101000a81548160ff0219169083151502179055505b565b600d60009054906101000a900460ff1681565b600b543410156115d5576040517f08c379a00000000000000000000000000000000000000000000000000000000081526004016115cc90613d08565b60405180910390fd5b60011515600d60019054906101000a900460ff1615151461162b576040517f08c379a000000000000000000000000000000000000000000000000000000000815260040161162290613d74565b60405180910390fd5b6001600f60003373ffffffffffffffffffffffffffffffffffffffff1673ffffffffffffffffffffffffffffffffffffffff16815260200190815260200160002054106116ad576040517f08c379a00000000000000000000000000000000000000000000000000000000081526004016116a490613e06565b60405180910390fd5b61271060085411156116f4576040517f08c379a00000000000000000000000000000000000000000000000000000000081526004016116eb90613b9e565b60405180910390fd5b61170033600854611c30565b600860008154809291906117139061389c565b91905055506001600f60003373ffffffffffffffffffffffffffffffffffffffff1673ffffffffffffffffffffffffffffffffffffffff168152602001908152602001600020600082825461176891906138e5565b92505081905550565b6060600380546117809061396a565b80601f01602080910402602001604051908101604052809291908181526020018280546117ac9061396a565b80156117f95780601f106117ce576101008083540402835291602001916117f9565b820191906000526020600020905b8154815290600101906020018083116117dc57829003601f168201915b5050505050905090565b61181561180e611c99565b83836121ee565b5050565b60008054906101000a900473ffffffffffffffffffffffffffffffffffffffff1673ffffffffffffffffffffffffffffffffffffffff163373ffffffffffffffffffffffffffffffffffffffff16146118a7576040517f08c379a000000000000000000000000000000000000000000000000000000000815260040161189e906135a8565b60405180910390fd5b80600d60026101000a81548173ffffffffffffffffffffffffffffffffffffffff021916908373ffffffffffffffffffffffffffffffffffffffff16021790555050565b6000600a54905090565b60008054906101000a900473ffffffffffffffffffffffffffffffffffffffff1673ffffffffffffffffffffffffffffffffffffffff163373ffffffffffffffffffffffffffffffffffffffff1614611983576040517f08c379a000000000000000000000000000000000000000000000000000000000815260040161197a906135a8565b60405180910390fd5b61199461198e611c99565b83611d5a565b6119d3576040517f08c379a00000000000000000000000000000000000000000000000000000000081526004016119ca90613b32565b60405180910390fd5b6119df8484848461235b565b50505050565b60606119f082611c4e565b60006119fa6123b7565b90506000815111611a1a5760405180602001604052806000815250611a45565b80611a2484612449565b604051602001611a35929190613e62565b6040516020818303038152906040525b915050919050565b6000600d60029054906101000a900473ffffffffffffffffffffffffffffffffffffffff16905090565b60085481565b6000600760008473ffffffffffffffffffffffffffffffffffffffff1673ffffffffffffffffffffffffffffffffffffffff16815260200190815260200160002060008373ffffffffffffffffffffffffffffffffffffffff1673ffffffffffffffffffffffffffffffffffffffff16815260200190815260200160002060009054906101000a900460ff16905092915050565b60008054906101000a900473ffffffffffffffffffffffffffffffffffffffff1673ffffffffffffffffffffffffffffffffffffffff163373ffffffffffffffffffffffffffffffffffffffff1614611b9f576040517f08c379a0000000000000000000000000000000000000000000000000000000008152600401611b96906135a8565b60405180910390fd5b80600b8190555050565b600c5481565b60007f01ffc9a7000000000000000000000000000000000000000000000000000000007bffffffffffffffffffffffffffffffffffffffffffffffffffffffff1916827bffffffffffffffffffffffffffffffffffffffffffffffffffffffff1916149050919050565b600082611c268584612521565b1490509392505050565b611c4a828260405180602001604052806000815250612577565b5050565b611c57816125d2565b611c96576040517f08c379a0000000000000000000000000000000000000000000000000000000008152600401611c8d90613c0a565b60405180910390fd5b50565b600033905090565b816006600083815260200190815260200160002060006101000a81548173ffffffffffffffffffffffffffffffffffffffff021916908373ffffffffffffffffffffffffffffffffffffffff160217905550808273ffffffffffffffffffffffffffffffffffffffff16611d1483611356565b73ffffffffffffffffffffffffffffffffffffffff167f8c5be1e5ebec7d5bd14f71427d1e84f3dd0314c0f7b2291e5b200ac8c7c3b92560405160405180910390a45050565b600080611d6683611356565b90508073ffffffffffffffffffffffffffffffffffffffff168473ffffffffffffffffffffffffffffffffffffffff161480611da85750611da78185611a7d565b5b80611de657508373ffffffffffffffffffffffffffffffffffffffff16611dce84610ccb565b73ffffffffffffffffffffffffffffffffffffffff16145b91505092915050565b8273ffffffffffffffffffffffffffffffffffffffff16611e0f82611356565b73ffffffffffffffffffffffffffffffffffffffff1614611e65576040517f08c379a0000000000000000000000000000000000000000000000000000000008152600401611e5c90613ef8565b60405180910390fd5b600073ffffffffffffffffffffffffffffffffffffffff168273ffffffffffffffffffffffffffffffffffffffff161415611ed5576040517f08c379a0000000000000000000000000000000000000000000000000000000008152600401611ecc90613f8a565b60405180910390fd5b611ee28383836001612613565b8273ffffffffffffffffffffffffffffffffffffffff16611f0282611356565b73ffffffffffffffffffffffffffffffffffffffff1614611f58576040517f08c379a0000000000000000000000000000000000000000000000000000000008152600401611f4f90613ef8565b60405180910390fd5b6006600082815260200190815260200160002060006101000a81549073ffffffffffffffffffffffffffffffffffffffff02191690556001600560008573ffffffffffffffffffffffffffffffffffffffff1673ffffffffffffffffffffffffffffffffffffffff168152602001908152602001600020600082825403925050819055506001600560008473ffffffffffffffffffffffffffffffffffffffff1673ffffffffffffffffffffffffffffffffffffffff16815260200190815260200160002060008282540192505081905550816004600083815260200190815260200160002060006101000a81548173ffffffffffffffffffffffffffffffffffffffff021916908373ffffffffffffffffffffffffffffffffffffffff160217905550808273ffffffffffffffffffffffffffffffffffffffff168473ffffffffffffffffffffffffffffffffffffffff167fddf252ad1be2c89b69c2b068fc378daa952ba7f163c4a11628f55a4df523b3ef60405160405180910390a46120e48383836001612739565b505050565b60006120f483611356565b9050612101818385611def565b61210a83611356565b90506006600084815260200190815260200160002060006101000a81549073ffffffffffffffffffffffffffffffffffffffff021916905582600073ffffffffffffffffffffffffffffffffffffffff168273ffffffffffffffffffffffffffffffffffffffff167fddf252ad1be2c89b69c2b068fc378daa952ba7f163c4a11628f55a4df523b3ef60405160405180910390a46121ac816000856001612739565b505050565b60006004600083815260200190815260200160002060009054906101000a900473ffffffffffffffffffffffffffffffffffffffff169050919050565b8173ffffffffffffffffffffffffffffffffffffffff168373ffffffffffffffffffffffffffffffffffffffff16141561225d576040517f08c379a000000000000000000000000000000000000000000000000000000000815260040161225490613ff6565b60405180910390fd5b80600760008573ffffffffffffffffffffffffffffffffffffffff1673ffffffffffffffffffffffffffffffffffffffff16815260200190815260200160002060008473ffffffffffffffffffffffffffffffffffffffff1673ffffffffffffffffffffffffffffffffffffffff16815260200190815260200160002060006101000a81548160ff0219169083151502179055508173ffffffffffffffffffffffffffffffffffffffff168373ffffffffffffffffffffffffffffffffffffffff167f17307eab39ab6107e8899845ad3d59bd9653f200f220920489ca2b5937696c318360405161234e9190612e03565b60405180910390a3505050565b612366848484611def565b6123728484848461273f565b6123b1576040517f08c379a00000000000000000000000000000000000000000000000000000000081526004016123a890614088565b60405180910390fd5b50505050565b6060600180546123c69061396a565b80601f01602080910402602001604051908101604052809291908181526020018280546123f29061396a565b801561243f5780601f106124145761010080835404028352916020019161243f565b820191906000526020600020905b81548152906001019060200180831161242257829003601f168201915b5050505050905090565b606060006001612458846128d6565b01905060008167ffffffffffffffff81111561247757612476612e39565b5b6040519080825280601f01601f1916602001820160405280156124a95781602001600182028036833780820191505090505b509050600082602001820190505b600115612516578080600190039150507f3031323334353637383961626364656600000000000000000000000000000000600a86061a8153600a8581612500576124ff6140a8565b5b049450600085141561251157612516565b6124b7565b819350505050919050565b60008082905060005b845181101561256c576125578286838151811061254a576125496140d7565b5b6020026020010151612a29565b915080806125649061389c565b91505061252a565b508091505092915050565b6125818383612a54565b61258e600084848461273f565b6125cd576040517f08c379a00000000000000000000000000000000000000000000000000000000081526004016125c490614088565b60405180910390fd5b505050565b60008073ffffffffffffffffffffffffffffffffffffffff166125f4836121b1565b73ffffffffffffffffffffffffffffffffffffffff1614159050919050565b600181111561273357600073ffffffffffffffffffffffffffffffffffffffff168473ffffffffffffffffffffffffffffffffffffffff16146126a75780600560008673ffffffffffffffffffffffffffffffffffffffff1673ffffffffffffffffffffffffffffffffffffffff168152602001908152602001600020600082825461269f9190614106565b925050819055505b600073ffffffffffffffffffffffffffffffffffffffff168373ffffffffffffffffffffffffffffffffffffffff16146127325780600560008573ffffffffffffffffffffffffffffffffffffffff1673ffffffffffffffffffffffffffffffffffffffff168152602001908152602001600020600082825461272a91906138e5565b925050819055505b5b50505050565b50505050565b60006127608473ffffffffffffffffffffffffffffffffffffffff16612c72565b156128c9578373ffffffffffffffffffffffffffffffffffffffff1663150b7a02612789611c99565b8786866040518563ffffffff1660e01b81526004016127ab949392919061418f565b602060405180830381600087803b1580156127c557600080fd5b505af19250505080156127f657506040513d601f19601f820116820180604052508101906127f391906141f0565b60015b612879573d8060008114612826576040519150601f19603f3d011682016040523d82523d6000602084013e61282b565b606091505b50600081511415612871576040517f08c379a000000000000000000000000000000000000000000000000000000000815260040161286890614088565b60405180910390fd5b805181602001fd5b63150b7a0260e01b7bffffffffffffffffffffffffffffffffffffffffffffffffffffffff1916817bffffffffffffffffffffffffffffffffffffffffffffffffffffffff1916149150506128ce565b600190505b949350505050565b600080600090507a184f03e93ff9f4daa797ed6e38ed64bf6a1f0100000000000000008310612934577a184f03e93ff9f4daa797ed6e38ed64bf6a1f010000000000000000838161292a576129296140a8565b5b0492506040810190505b6d04ee2d6d415b85acef81000000008310612971576d04ee2d6d415b85acef81000000008381612967576129666140a8565b5b0492506020810190505b662386f26fc1000083106129a057662386f26fc100008381612996576129956140a8565b5b0492506010810190505b6305f5e10083106129c9576305f5e10083816129bf576129be6140a8565b5b0492506008810190505b61271083106129ee5761271083816129e4576129e36140a8565b5b0492506004810190505b60648310612a115760648381612a0757612a066140a8565b5b0492506002810190505b600a8310612a20576001810190505b80915050919050565b6000818310612a4157612a3c8284612c95565b612a4c565b612a4b8383612c95565b5b905092915050565b600073ffffffffffffffffffffffffffffffffffffffff168273ffffffffffffffffffffffffffffffffffffffff161415612ac4576040517f08c379a0000000000000000000000000000000000000000000000000000000008152600401612abb90614269565b60405180910390fd5b612acd816125d2565b15612b0d576040517f08c379a0000000000000000000000000000000000000000000000000000000008152600401612b04906142d5565b60405180910390fd5b612b1b600083836001612613565b612b24816125d2565b15612b64576040517f08c379a0000000000000000000000000000000000000000000000000000000008152600401612b5b906142d5565b60405180910390fd5b6001600560008473ffffffffffffffffffffffffffffffffffffffff1673ffffffffffffffffffffffffffffffffffffffff16815260200190815260200160002060008282540192505081905550816004600083815260200190815260200160002060006101000a81548173ffffffffffffffffffffffffffffffffffffffff021916908373ffffffffffffffffffffffffffffffffffffffff160217905550808273ffffffffffffffffffffffffffffffffffffffff16600073ffffffffffffffffffffffffffffffffffffffff167fddf252ad1be2c89b69c2b068fc378daa952ba7f163c4a11628f55a4df523b3ef60405160405180910390a4612c6e600083836001612739565b5050565b6000808273ffffffffffffffffffffffffffffffffffffffff163b119050919050565b600082600052816020526040600020905092915050565b828054612cb89061396a565b90600052602060002090601f016020900481019282612cda5760008555612d21565b82601f10612cf357805160ff1916838001178555612d21565b82800160010185558215612d21579182015b82811115612d20578251825591602001919060010190612d05565b5b509050612d2e9190612d32565b5090565b5b80821115612d4b576000816000905550600101612d33565b5090565b6000604051905090565b600080fd5b600080fd5b60007fffffffff0000000000000000000000000000000000000000000000000000000082169050919050565b612d9881612d63565b8114612da357600080fd5b50565b600081359050612db581612d8f565b92915050565b600060208284031215612dd157612dd0612d59565b5b6000612ddf84828501612da6565b91505092915050565b60008115159050919050565b612dfd81612de8565b82525050565b6000602082019050612e186000830184612df4565b92915050565b600080fd5b600080fd5b6000601f19601f8301169050919050565b7f4e487b7100000000000000000000000000000000000000000000000000000000600052604160045260246000fd5b612e7182612e28565b810181811067ffffffffffffffff82111715612e9057612e8f612e39565b5b80604052505050565b6000612ea3612d4f565b9050612eaf8282612e68565b919050565b600067ffffffffffffffff821115612ecf57612ece612e39565b5b612ed882612e28565b9050602081019050919050565b82818337600083830152505050565b6000612f07612f0284612eb4565b612e99565b905082815260208101848484011115612f2357612f22612e23565b5b612f2e848285612ee5565b509392505050565b600082601f830112612f4b57612f4a612e1e565b5b8135612f5b848260208601612ef4565b91505092915050565b600060208284031215612f7a57612f79612d59565b5b600082013567ffffffffffffffff811115612f9857612f97612d5e565b5b612fa484828501612f36565b91505092915050565b600080fd5b600080fd5b60008083601f840112612fcd57612fcc612e1e565b5b8235905067ffffffffffffffff811115612fea57612fe9612fad565b5b60208301915083602082028301111561300657613005612fb2565b5b9250929050565b6000806020838503121561302457613023612d59565b5b600083013567ffffffffffffffff81111561304257613041612d5e565b5b61304e85828601612fb7565b92509250509250929050565b600081519050919050565b600082825260208201905092915050565b60005b83811015613094578082015181840152602081019050613079565b838111156130a3576000848401525b50505050565b60006130b48261305a565b6130be8185613065565b93506130ce818560208601613076565b6130d781612e28565b840191505092915050565b600060208201905081810360008301526130fc81846130a9565b905092915050565b6000819050919050565b61311781613104565b811461312257600080fd5b50565b6000813590506131348161310e565b92915050565b6000602082840312156131505761314f612d59565b5b600061315e84828501613125565b91505092915050565b600073ffffffffffffffffffffffffffffffffffffffff82169050919050565b600061319282613167565b9050919050565b6131a281613187565b82525050565b60006020820190506131bd6000830184613199565b92915050565b6131cc81613187565b81146131d757600080fd5b50565b6000813590506131e9816131c3565b92915050565b6000806040838503121561320657613205612d59565b5b6000613214858286016131da565b925050602061322585828601613125565b9150509250929050565b61323881613104565b82525050565b6000602082019050613253600083018461322f565b92915050565b60008060006060848603121561327257613271612d59565b5b6000613280868287016131da565b9350506020613291868287016131da565b92505060406132a286828701613125565b9150509250925092565b6000819050919050565b6132bf816132ac565b81146132ca57600080fd5b50565b6000813590506132dc816132b6565b92915050565b6000602082840312156132f8576132f7612d59565b5b6000613306848285016132cd565b91505092915050565b60006020828403121561332557613324612d59565b5b6000613333848285016131da565b91505092915050565b61334581612de8565b811461335057600080fd5b50565b6000813590506133628161333c565b92915050565b6000806040838503121561337f5761337e612d59565b5b600061338d858286016131da565b925050602061339e85828601613353565b9150509250929050565b600067ffffffffffffffff8211156133c3576133c2612e39565b5b6133cc82612e28565b9050602081019050919050565b60006133ec6133e7846133a8565b612e99565b90508281526020810184848401111561340857613407612e23565b5b613413848285612ee5565b509392505050565b600082601f8301126134305761342f612e1e565b5b81356134408482602086016133d9565b91505092915050565b6000806000806080858703121561346357613462612d59565b5b6000613471878288016131da565b9450506020613482878288016131da565b935050604061349387828801613125565b925050606085013567ffffffffffffffff8111156134b4576134b3612d5e565b5b6134c08782880161341b565b91505092959194509250565b600080604083850312156134e3576134e2612d59565b5b60006134f1858286016131da565b9250506020613502858286016131da565b9150509250929050565b613515816132ac565b82525050565b6000602082019050613530600083018461350c565b92915050565b7f4f6e6c79206f776e65722063616e2063616c6c2074686973206675636e74696f60008201527f6e00000000000000000000000000000000000000000000000000000000000000602082015250565b6000613592602183613065565b915061359d82613536565b604082019050919050565b600060208201905081810360008301526135c181613585565b9050919050565b60008160601b9050919050565b60006135e0826135c8565b9050919050565b60006135f2826135d5565b9050919050565b61360a61360582613187565b6135e7565b82525050565b600061361c82846135f9565b60148201915081905092915050565b7f576c206d696e7420697320636c6f736500000000000000000000000000000000600082015250565b6000613661601083613065565b915061366c8261362b565b602082019050919050565b6000602082019050818103600083015261369081613654565b9050919050565b7f576c2073697a6520776173207265616368656400000000000000000000000000600082015250565b60006136cd601383613065565b91506136d882613697565b602082019050919050565b600060208201905081810360008301526136fc816136c0565b9050919050565b7f596f75206861766520616c7265616479206d696e746564206d617820776c206e60008201527f667420666f7220796f7572206164647265737300000000000000000000000000602082015250565b600061375f603383613065565b915061376a82613703565b604082019050919050565b6000602082019050818103600083015261378e81613752565b9050919050565b7f596f7520617265206e6f7420696e2077686974656c6973740000000000000000600082015250565b60006137cb601883613065565b91506137d682613795565b602082019050919050565b600060208201905081810360008301526137fa816137be565b9050919050565b7f596f75206861766520726563686564206d617820746f74616c20737570706c79600082015250565b6000613837602083613065565b915061384282613801565b602082019050919050565b600060208201905081810360008301526138668161382a565b9050919050565b7f4e487b7100000000000000000000000000000000000000000000000000000000600052601160045260246000fd5b60006138a782613104565b91507fffffffffffffffffffffffffffffffffffffffffffffffffffffffffffffffff8214156138da576138d961386d565b5b600182019050919050565b60006138f082613104565b91506138fb83613104565b9250827fffffffffffffffffffffffffffffffffffffffffffffffffffffffffffffffff038211156139305761392f61386d565b5b828201905092915050565b7f4e487b7100000000000000000000000000000000000000000000000000000000600052602260045260246000fd5b6000600282049050600182168061398257607f821691505b602082108114156139965761399561393b565b5b50919050565b7f4552433732313a20617070726f76616c20746f2063757272656e74206f776e6560008201527f7200000000000000000000000000000000000000000000000000000000000000602082015250565b60006139f8602183613065565b9150613a038261399c565b604082019050919050565b60006020820190508181036000830152613a27816139eb565b9050919050565b7f4552433732313a20617070726f76652063616c6c6572206973206e6f7420746f60008201527f6b656e206f776e6572206f7220617070726f76656420666f7220616c6c000000602082015250565b6000613a8a603d83613065565b9150613a9582613a2e565b604082019050919050565b60006020820190508181036000830152613ab981613a7d565b9050919050565b7f4552433732313a2063616c6c6572206973206e6f7420746f6b656e206f776e6560008201527f72206f7220617070726f76656400000000000000000000000000000000000000602082015250565b6000613b1c602d83613065565b9150613b2782613ac0565b604082019050919050565b60006020820190508181036000830152613b4b81613b0f565b9050919050565b7f596f752072656163686564206d6178746f74616c20737570706c790000000000600082015250565b6000613b88601b83613065565b9150613b9382613b52565b602082019050919050565b60006020820190508181036000830152613bb781613b7b565b9050919050565b7f4552433732313a20696e76616c696420746f6b656e2049440000000000000000600082015250565b6000613bf4601883613065565b9150613bff82613bbe565b602082019050919050565b60006020820190508181036000830152613c2381613be7565b9050919050565b7f4552433732313a2061646472657373207a65726f206973206e6f74206120766160008201527f6c6964206f776e65720000000000000000000000000000000000000000000000602082015250565b6000613c86602983613065565b9150613c9182613c2a565b604082019050919050565b60006020820190508181036000830152613cb581613c79565b9050919050565b7f4e6f7420656e6f75676820455448000000000000000000000000000000000000600082015250565b6000613cf2600e83613065565b9150613cfd82613cbc565b602082019050919050565b60006020820190508181036000830152613d2181613ce5565b9050919050565b7f5075626c6963206d696e74206469646e2774206f70656e000000000000000000600082015250565b6000613d5e601783613065565b9150613d6982613d28565b602082019050919050565b60006020820190508181036000830152613d8d81613d51565b9050919050565b7f596f752068617665206d696e746564206d61782070657220796f75206164647260008201527f6573730000000000000000000000000000000000000000000000000000000000602082015250565b6000613df0602383613065565b9150613dfb82613d94565b604082019050919050565b60006020820190508181036000830152613e1f81613de3565b9050919050565b600081905092915050565b6000613e3c8261305a565b613e468185613e26565b9350613e56818560208601613076565b80840191505092915050565b6000613e6e8285613e31565b9150613e7a8284613e31565b91508190509392505050565b7f4552433732313a207472616e736665722066726f6d20696e636f72726563742060008201527f6f776e6572000000000000000000000000000000000000000000000000000000602082015250565b6000613ee2602583613065565b9150613eed82613e86565b604082019050919050565b60006020820190508181036000830152613f1181613ed5565b9050919050565b7f4552433732313a207472616e7366657220746f20746865207a65726f2061646460008201527f7265737300000000000000000000000000000000000000000000000000000000602082015250565b6000613f74602483613065565b9150613f7f82613f18565b604082019050919050565b60006020820190508181036000830152613fa381613f67565b9050919050565b7f4552433732313a20617070726f766520746f2063616c6c657200000000000000600082015250565b6000613fe0601983613065565b9150613feb82613faa565b602082019050919050565b6000602082019050818103600083015261400f81613fd3565b9050919050565b7f4552433732313a207472616e7366657220746f206e6f6e20455243373231526560008201527f63656976657220696d706c656d656e7465720000000000000000000000000000602082015250565b6000614072603283613065565b915061407d82614016565b604082019050919050565b600060208201905081810360008301526140a181614065565b9050919050565b7f4e487b7100000000000000000000000000000000000000000000000000000000600052601260045260246000fd5b7f4e487b7100000000000000000000000000000000000000000000000000000000600052603260045260246000fd5b600061411182613104565b915061411c83613104565b92508282101561412f5761412e61386d565b5b828203905092915050565b600081519050919050565b600082825260208201905092915050565b60006141618261413a565b61416b8185614145565b935061417b818560208601613076565b61418481612e28565b840191505092915050565b60006080820190506141a46000830187613199565b6141b16020830186613199565b6141be604083018561322f565b81810360608301526141d08184614156565b905095945050505050565b6000815190506141ea81612d8f565b92915050565b60006020828403121561420657614205612d59565b5b6000614214848285016141db565b91505092915050565b7f4552433732313a206d696e7420746f20746865207a65726f2061646472657373600082015250565b6000614253602083613065565b915061425e8261421d565b602082019050919050565b6000602082019050818103600083015261428281614246565b9050919050565b7f4552433732313a20746f6b656e20616c7265616479206d696e74656400000000600082015250565b60006142bf601c83613065565b91506142ca82614289565b602082019050919050565b600060208201905081810360008301526142ee816142b2565b905091905056fea2646970667358221220599894edf3b5a766e3f4e341a359c53f3f70d0ca07b52aea4434e94dda30840164736f6c63430008090033",
  "devdoc": {
    "kind": "dev",
    "methods": {
      "approve(address,uint256)": {
        "details": "See {IERC721-approve}."
      },
      "balanceOf(address)": {
        "details": "See {IERC721-balanceOf}."
      },
      "getApproved(uint256)": {
        "details": "See {IERC721-getApproved}."
      },
      "isApprovedForAll(address,address)": {
        "details": "See {IERC721-isApprovedForAll}."
      },
      "name()": {
        "details": "See {IERC721Metadata-name}."
      },
      "ownerOf(uint256)": {
        "details": "See {IERC721-ownerOf}."
      },
      "safeTransferFrom(address,address,uint256)": {
        "details": "See {IERC721-safeTransferFrom}."
      },
      "safeTransferFrom(address,address,uint256,bytes)": {
        "details": "See {IERC721-safeTransferFrom}."
      },
      "setApprovalForAll(address,bool)": {
        "details": "See {IERC721-setApprovalForAll}."
      },
      "supportsInterface(bytes4)": {
        "details": "See {IERC165-supportsInterface}."
      },
      "symbol()": {
        "details": "See {IERC721Metadata-symbol}."
      },
      "tokenURI(uint256)": {
        "details": "See {IERC721Metadata-tokenURI}."
      },
      "transferFrom(address,address,uint256)": {
        "details": "See {IERC721-transferFrom}."
      }
    },
    "version": 1
  },
  "userdoc": {
    "kind": "user",
    "methods": {},
    "version": 1
  },
  "storageLayout": {
    "storage": [
      {
        "astId": 25,
        "contract": "contracts/formaCar.sol:formaCar",
        "label": "_owner",
        "offset": 0,
        "slot": "0",
        "type": "t_address"
      },
      {
        "astId": 40,
        "contract": "contracts/formaCar.sol:formaCar",
        "label": "baseURI",
        "offset": 0,
        "slot": "1",
        "type": "t_string_storage"
      },
      {
        "astId": 42,
        "contract": "contracts/formaCar.sol:formaCar",
        "label": "_name",
        "offset": 0,
        "slot": "2",
        "type": "t_string_storage"
      },
      {
        "astId": 44,
        "contract": "contracts/formaCar.sol:formaCar",
        "label": "_symbol",
        "offset": 0,
        "slot": "3",
        "type": "t_string_storage"
      },
      {
        "astId": 48,
        "contract": "contracts/formaCar.sol:formaCar",
        "label": "_owners",
        "offset": 0,
        "slot": "4",
        "type": "t_mapping(t_uint256,t_address)"
      },
      {
        "astId": 52,
        "contract": "contracts/formaCar.sol:formaCar",
        "label": "_balances",
        "offset": 0,
        "slot": "5",
        "type": "t_mapping(t_address,t_uint256)"
      },
      {
        "astId": 56,
        "contract": "contracts/formaCar.sol:formaCar",
        "label": "_tokenApprovals",
        "offset": 0,
        "slot": "6",
        "type": "t_mapping(t_uint256,t_address)"
      },
      {
        "astId": 62,
        "contract": "contracts/formaCar.sol:formaCar",
        "label": "_operatorApprovals",
        "offset": 0,
        "slot": "7",
        "type": "t_mapping(t_address,t_mapping(t_address,t_bool))"
      },
      {
        "astId": 3058,
        "contract": "contracts/formaCar.sol:formaCar",
        "label": "tokenCounter",
        "offset": 0,
        "slot": "8",
        "type": "t_uint256"
      },
      {
        "astId": 3061,
        "contract": "contracts/formaCar.sol:formaCar",
        "label": "maxToWlMint",
        "offset": 0,
        "slot": "9",
        "type": "t_uint256"
      },
      {
        "astId": 3063,
        "contract": "contracts/formaCar.sol:formaCar",
        "label": "wlMinted",
        "offset": 0,
        "slot": "10",
        "type": "t_uint256"
      },
      {
        "astId": 3066,
        "contract": "contracts/formaCar.sol:formaCar",
        "label": "publicMintPrice",
        "offset": 0,
        "slot": "11",
        "type": "t_uint256"
      },
      {
        "astId": 3071,
        "contract": "contracts/formaCar.sol:formaCar",
        "label": "MerkleRootWL",
        "offset": 0,
        "slot": "12",
        "type": "t_bytes32"
      },
      {
        "astId": 3074,
        "contract": "contracts/formaCar.sol:formaCar",
        "label": "wlMint",
        "offset": 0,
        "slot": "13",
        "type": "t_bool"
      },
      {
        "astId": 3077,
        "contract": "contracts/formaCar.sol:formaCar",
        "label": "publicMint",
        "offset": 1,
        "slot": "13",
        "type": "t_bool"
      },
      {
        "astId": 3079,
        "contract": "contracts/formaCar.sol:formaCar",
        "label": "owner",
        "offset": 2,
        "slot": "13",
        "type": "t_address"
      },
      {
        "astId": 3104,
        "contract": "contracts/formaCar.sol:formaCar",
        "label": "addresMintedWl",
        "offset": 0,
        "slot": "14",
        "type": "t_mapping(t_address,t_uint256)"
      },
      {
        "astId": 3108,
        "contract": "contracts/formaCar.sol:formaCar",
        "label": "addresMintedPublic",
        "offset": 0,
        "slot": "15",
        "type": "t_mapping(t_address,t_uint256)"
      }
    ],
    "types": {
      "t_address": {
        "encoding": "inplace",
        "label": "address",
        "numberOfBytes": "20"
      },
      "t_bool": {
        "encoding": "inplace",
        "label": "bool",
        "numberOfBytes": "1"
      },
      "t_bytes32": {
        "encoding": "inplace",
        "label": "bytes32",
        "numberOfBytes": "32"
      },
      "t_mapping(t_address,t_bool)": {
        "encoding": "mapping",
        "key": "t_address",
        "label": "mapping(address => bool)",
        "numberOfBytes": "32",
        "value": "t_bool"
      },
      "t_mapping(t_address,t_mapping(t_address,t_bool))": {
        "encoding": "mapping",
        "key": "t_address",
        "label": "mapping(address => mapping(address => bool))",
        "numberOfBytes": "32",
        "value": "t_mapping(t_address,t_bool)"
      },
      "t_mapping(t_address,t_uint256)": {
        "encoding": "mapping",
        "key": "t_address",
        "label": "mapping(address => uint256)",
        "numberOfBytes": "32",
        "value": "t_uint256"
      },
      "t_mapping(t_uint256,t_address)": {
        "encoding": "mapping",
        "key": "t_uint256",
        "label": "mapping(uint256 => address)",
        "numberOfBytes": "32",
        "value": "t_address"
      },
      "t_string_storage": {
        "encoding": "bytes",
        "label": "string",
        "numberOfBytes": "32"
      },
      "t_uint256": {
        "encoding": "inplace",
        "label": "uint256",
        "numberOfBytes": "32"
      }
    }
  }
}